:020000040C00EE
:100000000008001001020008B1020008B102000857
:10001000B1020008B1020008B102000800000000AF
:10002000000000000000000000000000B102000815
:10003000B102000800000000B102000895030008AA
:10004000B1020008B1020008B1020008B1020008C4
:10005000B1020008B1020008B1020008B1020008B4
:10006000B1020008000000000000000000000000D5
:10007000B102000800000000B1020008B10200084F
:10008000B1020008B1020008B1020008B102000884
:10009000B1020008B1020008B1020008B102000874
:1000A000B1020008B1020008B1020008B102000864
:1000B000B1020008B1020008B1020008B102000854
:1000C000B1020008B1020008B1020008B102000844
:1000D000B1020008B1020008B1020008B102000834
:1000E000B1020008B1020008B1020008B102000824
:1000F000B1020008B1020008B1020008B102000814
:10010000B1020008B1020008B1020008B102000803
:10011000B1020008B1020008B1020008B1020008F3
:10012000B1020008B1020008B1020008B1020008E3
:10013000B1020008B1020008B1020008B1020008D3
:10014000B1020008B1020008B1020008B1020008C3
:10015000B1020008B1020008B1020008B1020008B3
:10016000000000000000000000000000000000008F
:10017000B1020008B1020008B1020008B102000893
:10018000B1020008B1020008B1020008B102000883
:10019000B1020008B1020008B1020008B102000873
:1001A000B1020008B1020008B1020008B102000863
:1001B000B1020008B1020008B1020008B102000853
:1001C000B1020008B1020008B1020008B102000843
:1001D000B1020008B1020008B102000800000000EE
:1001E000B1020008B1020008B1020008B102000823
:1001F000B102000800000000B10200080000000089
:10020000DFF88CD023488047234C244DAC4209DAD8
:1002100021686268A368043BA2BFC858D050FAE7BF
:100220000C34F3E71E4B1F4CA34208DA19685A68D6
:100230000020043AA4BF8850FBE70833F4E71A48CB
:1002400080471A4880470000A82B000C00000020BF
:1002500038040000E02F000C000000300000000017
:10026000A82B000C0008001000000000A82B000CB8
:100270000008001000000000380400208C0000007E
:100280000000003000000000000800100000000026
:1002900000080010B925000848020008780200088C
:1002A0007802000890020008C9290008D903000854
:1002B000FEE7000080B483B000AF03463960FB71F5
:1002C00097F90730002B0ADB3B68DAB20C4997F943
:1002D00007309200D2B20B4483F800230AE03B6857
:1002E000DAB20849FB7903F00F03043B9200D2B263
:1002F0000B441A7600BF0C37BD465DF8047B70478F
:1003000000E100E000ED00E080B582B000AF786071
:100310007B68013BB3F1807F01D301230FE00A4AE0
:100320007B68013B53603F214FF0FF30FFF7C2FF76
:10033000054B00229A60044B07221A6000231846DE
:100340000837BD4680BD00BF10E000E080B483B038
:1003500000AF78600B46FB70FB7801229A407B6807
:100360005A6000BF0C37BD465DF8047B704780B40F
:1003700083B000AF78600B46FB70FB784FF480329F
:100380009A407B685A6000BF0C37BD465DF8047B1D
:100390007047000080B400AF0D4B1B6801330C4A5E
:1003A00013600B4B1B683C2B0CD90A4B1B68002BB2
:1003B00003D1084B01221A6004E0064B1B6801338D
:1003C000044A136000BFBD465DF8047B704700BF60
:1003D000000000203804002080B59CB000AF264A01
:1003E00007F10C0311465A22184602F011FB07F1DF
:1003F000660300221A601A7180233B7001237B6020
:1004000004233B723B461A4601211C4800F0A4F825
:100410004FF480337B603B461A460021174800F0BA
:100420009BF8174B1B68174AA2FB0323DB081846EF
:10043000FFF76AFFF866144B1B6807F1700213445C
:1004400013F8643C032B0FD0032BF4DC002B06D0F5
:10045000012BF0D101210948FFF778FF0BE00121C2
:100460000648FFF784FF06E0074B00221A60074B9F
:1004700000221A6000BFDEE7442B0008008102481A
:10048000C0FF0020CDCCCCCC3804002000000020E0
:1004900080B483B000AF78600B46FB701346BB702E
:1004A000FB789B08DBB21A467B68043253F82220A3
:1004B000FB7803F00303DB00F82101FA03F3DB43CD
:1004C000F9788908C9B2084602EA03017B68021D6F
:1004D00043F82210FB789B08DBB21A467B68043293
:1004E00053F82220B978FB7803F00303DB0001FA0C
:1004F00003F3F9788908C9B2084642EA03017B6828
:10050000021D43F8221000BF0C37BD465DF8047B86
:10051000704780B483B000AF78600B46FB70134621
:10052000BB707B685A6FFB785B00032101FA03F311
:10053000DB431A407B685A677B685A6FB978FB784F
:100540005B0001FA03F31A437B685A6700BF0C375C
:10055000BD465DF8047B704780B485B000AFF8609D
:100560000B467A60FB72FB7A9B08DBB21A46FB688B
:10057000043253F82220FB7A03F00303DB00F82156
:1005800001FA03F3DB43F97A8908C9B2084602EAA3
:100590000301FB68021D43F82210FB685A6FFB7AC7
:1005A0005B00032101FA03F3DB431A40FB685A673F
:1005B000FB68384A934203D0FB68374A93420AD11A
:1005C000FB681A6EFB7A012101FA03F3DB431A4040
:1005D000FB681A663CE07B685A68FB7A9A40FB68C5
:1005E0005A60FB7ADB08DBB21A46FB68103253F81C
:1005F0002220FB7A03F007039B00072101FA03F393
:10060000DB43F97AC908C9B2084602EA0301FB686C
:1006100000F1100243F82210FB7ADB08DBB21A4625
:10062000FB68103253F822207B681B7A1946FB7A4C
:1006300003F007039B0001FA03F3F97AC908C9B272
:10064000084642EA0301FB6800F1100243F8221059
:10065000FB7A9B08DBB21A46FB68043253F822206F
:100660007B681B781946FB7A03F00303DB0001FA71
:1006700003F3F97A8908C9B2084642EA0301FB6824
:10068000021D43F8221000BF1437BD465DF8047BFD
:10069000704700BF008E0248008F024880B483B0CC
:1006A00000AF78600B46FB701346BB70FB78DB082D
:1006B000DBB21A467B68103253F82220FB7803F035
:1006C00007039B00072101FA03F3DB43F978C9080C
:1006D000C9B2084602EA03017B6800F1100243F840
:1006E0002210FB78DB08DBB21A467B68103253F825
:1006F0002220B978FB7803F007039B0001FA03F38B
:10070000F978C908C9B2084642EA03017B6800F1DA
:10071000100243F8221000BF0C37BD465DF8047B81
:100720007047000080B400AF034BD3F8C4301846C4
:10073000BD465DF8047B70470040005080B500AFB7
:1007400000BFFFF7EFFF034603F48073002BF8D1DF
:10075000034B5B68024A43F00103536000BF80BD56
:10076000004A005080B500AF00BFFFF7DBFF034633
:1007700003F48073002BF8D1034B5B68024A23F02B
:100780000103536000BF80BD004A005080B582B0B5
:1007900000AF0346FB8000BFFFF7C4FF034603F42E
:1007A0008073002BF8D1064B5B689AB2FB881B0460
:1007B000034913434B6000BF0837BD4680BD00BFEF
:1007C000004A005080B582B000AF786000BFFFF7EC
:1007D000A9FF034603F40063002BF8D1094A7B68A4
:1007E0001B68136200BFFFF79DFF034603F48053AD
:1007F000002BF8D1034A7B685B68536200BF08375F
:10080000BD4680BD004A005080B483B000AF786020
:10081000064B1A6A7B681A60044B5A6A7B685A60F6
:1008200000BF0C37BD465DF8047B7047004A00509E
:1008300080B584B000AF78607B681B6803F03F032D
:10084000DAB23B7A62F305033B727B685B6803F0C4
:100850003F03DAB27B7A62F305037B727B689B68A5
:1008600003F01F03DAB2BB7A62F30403BB727B6846
:10087000DB68DBB2013BDBB203F01F03DAB2FB7AC9
:1008800062F30403FB727B681B6903F00F03DAB2A7
:100890007B7B62F303037B737B685B699BB203F230
:1008A0006C739BB2FB817B689B6903F00703DAB230
:1008B0003B7B62F302033B7307F108031846FFF723
:1008C00081FF00BF1037BD4680BD000080B485B0F9
:1008D00000AF78601D4B1B6ABB601C4B5B6AFB6002
:1008E0003B7AC3F30503DBB21A467B681A607B7A56
:1008F000C3F30503DBB21A467B685A60BB7AC3F3C5
:100900000403DBB21A467B689A60FB7AC3F30403E4
:10091000DBB25A1C7B68DA607B7BC3F30303DBB278
:100920001A467B681A61FB89A3F26C727B685A6174
:100930003B7BC3F30203DBB21A467B689A6100BFBC
:100940001437BD465DF8047B704700BF004A005075
:1009500080B582B000AF786000BFFFF7E3FE0346CA
:1009600003F40073002BF8D1094A7B681B6893617C
:1009700000BFFFF7D7FE034603F48063002BF8D1D6
:10098000034A7B685B68D36100BF0837BD4680BD02
:10099000004A005080B483B000AF7860064B9A697B
:1009A0007B681A60044BDA697B685A6000BF0C37B9
:1009B000BD465DF8047B7047004A005080B584B0A6
:1009C00000AF78607B681B6803F03F03DAB23B7AC4
:1009D00062F305033B727B685B6803F03F03DAB2A6
:1009E0007B7A62F305037B727B689B6803F01F03CD
:1009F000DAB2BB7A62F30403BB727B68DB68DBB2FA
:100A0000013BDBB203F01F03DAB2FB7A62F30403AB
:100A1000FB727B681B6903F00F03DAB27B7B62F326
:100A200003037B737B685B699BB203F26C739BB2BD
:100A3000FB8107F108031846FFF78AFF00BF103754
:100A4000BD4680BD80B485B000AF7860194B9B690E
:100A5000BB60184BDB69FB603B7AC3F30503DBB279
:100A60001A467B681A607B7AC3F30503DBB21A4629
:100A70007B685A60BB7AC3F30403DBB21A467B6817
:100A80009A60FB7AC3F30403DBB25A1C7B68DA601A
:100A90007B7BC3F30303DBB21A467B681A61FB89D5
:100AA000A3F26C727B685A6100BF1437BD465DF8D3
:100AB000047B7047004A005080B400AF034BDB68F2
:100AC0001846BD465DF8047B704700BF004A0050E1
:100AD00080B400AF064B5B6803F00103002B14BF2A
:100AE00001230023DBB21846BD465DF8047B704746
:100AF000004A005080B400AF034BD3F8C43018460E
:100B0000BD465DF8047B70470040005080B500AFE3
:100B100001F0B8F800BF80BD80B400AF00BFBD4693
:100B20005DF8047B704780B500AF01F0E9F803463B
:100B3000184680BD80B582B000AF7860FFF7C8FF6F
:100B4000034683F00103DBB2002B3ED001F0D8F85E
:100B5000034683F00103DBB2002B01D001F092F8D1
:100B60007B681B8A1846FFF711FE00BFFFF7C2FF24
:100B7000034603F40063002BF8D1164A7B681B6818
:100B8000136200BFFFF7B6FF034603F48053002B48
:100B9000F8D1104A7B685B68536200BFFFF7AAFF79
:100BA000034603F40073002BF8D10A4A7B689B6864
:100BB000936100BFFFF79EFF034603F48063002BA1
:100BC000F8D1044A7B68DB68D361002318460837F4
:100BD000BD4680BD004A005080B582B000AF78604D
:100BE00000BFFFF787FF034603F48043002BF8D1D3
:100BF000044B1A6903497B6813430B6100BF083734
:100C0000BD4680BD004A005080B582B000AF78601C
:100C100000BFFFF76FFF034603F48043002BF8D1BA
:100C2000054B1A697B68DB43034913400B6100BF26
:100C30000837BD4680BD00BF004A005080B582B075
:100C400000AF786000BFFFF755FF034603F4004391
:100C5000002BF8D1034A7B68536100BF0837BD46BB
:100C600080BD00BF004A005080B582B000AF786000
:100C700000BFFFF73FFF034603F48073002BF8D15A
:100C8000044B5A6803497B6813434B6000BF083725
:100C9000BD4680BD004A005080B582B000AF78608C
:100CA00000BFFFF727FF034603F48073002BF8D142
:100CB000054B5A687B68DB43034913404B6000BF18
:100CC0000837BD4680BD00BF004A005080B400AF69
:100CD000044B9B6903F480331846BD465DF8047BE2
:100CE000704700BF0046005080B400AF044B5B6A01
:100CF00003F440331846BD465DF8047B704700BFDF
:100D00000046005080B400AF054B9B6ADBB203F095
:100D10000303DBB21846BD465DF8047B704700BF95
:100D20000046005080B400AF064B1A68064B1B69A2
:100D300003F0010302FA03F31846BD465DF8047B95
:100D4000704700BFC0FF00200046005080B400AFD5
:100D5000034B1B681846BD465DF8047B704700BF17
:100D6000C0FF002080B400AF034BD3F8C430184656
:100D7000BD465DF8047B70470040005080B584B0EC
:100D800000AF786001F06AFD0C4B1B680C4AA2FBB7
:100D900003239A0C7B6802FB03F37B600023FB6058
:100DA00003E000BFFB680133FB60FA687B689A428E
:100DB000F7D300BF00BF1037BD4680BDC0FF002085
:100DC00083DE1B4380B483B000AF7860054B9A6824
:100DD00004497B6813438B6000BF0C37BD465DF848
:100DE000047B70477440005080B483B000AF7860DB
:100DF000064B9A687B68DB43044913408B6000BF55
:100E00000C37BD465DF8047B704700BF744000504E
:100E100080B483B000AF7860054B1A6904497B68E1
:100E200013430B6100BF0C37BD465DF8047B704770
:100E30007440005080B400AF034B5B681846BD4659
:100E40005DF8047B704700BF7440005080B483B0ED
:100E500000AF7860044A7B68D36000BF0C37BD46A2
:100E60005DF8047B704700BF7440005080B400AF51
:100E7000044B1B6903F470631846BD465DF8047BA0
:100E8000704700BF0040005080B483B000AF0346FD
:100E9000FB80044AFB88136100BF0C37BD465DF838
:100EA000047B70470040005080B483B000AF78608E
:100EB000054A7B680A339B0013445B6818460C376D
:100EC000BD465DF8047B70470040005080B483B09D
:100ED00000AF78603960064A7B680A339B00134490
:100EE0003A685A6000BF0C37BD465DF8047B704716
:100EF0000040005080B483B000AF786039600A4A87
:100F00007B68283352F8232001213B6801FA03F360
:100F100005491A437B68283341F8232000BF0C376A
:100F2000BD465DF8047B70470040005080B483B03C
:100F300000AF786039600B4A7B68283352F8232071
:100F400001213B6801FA03F3DB4306491A407B6841
:100F5000283341F8232000BF0C37BD465DF8047BE1
:100F6000704700BF0040005080B483B000AF78608D
:100F700039607B681A013B68DB021343054A43F47E
:100F80000803C2F88C3000BF0C37BD465DF8047B07
:100F9000704700BF0040005080B400AF064BD3F84C
:100FA0008C30054A23F00103C2F88C3000BFBD46E7
:100FB0005DF8047B704700BF0040005080B400AF74
:100FC000064BD3F88C30054A43F00103C2F88C304D
:100FD00000BFBD465DF8047B704700BF0040005075
:100FE00080B400AF074BD3F88C3003F00103002B23
:100FF0000CBF01230023DBB21846BD465DF8047B1D
:10100000704700BF0040005080B400AF074BD3F8DA
:10101000903003F48043002B14BF01230023DBB284
:101020001846BD465DF8047B704700BF0040005085
:1010300080B582B000AF0023FB71FFF7D1FF0346FC
:1010400083F00103DBB2002B01D00123FB7100F020
:1010500031F80346002B01D00223FB71064BD3F875
:101060008C30054A43F00203C2F88C30FB791846F5
:101070000837BD4680BD00BF0040005080B582B03B
:1010800000AFFFF7ADFF034683F00103DBB2002B97
:1010900003D06FF000437B6005E0054BD3F8903040
:1010A000C3F309037B607B6818460837BD4680BDE3
:1010B0000040005080B400AF074BD3F8903003F4E9
:1010C0000043002B14BF01230023DBB21846BD46AA
:1010D0005DF8047B704700BF0040005080B485B0CD
:1010E00000AF786039607B681B0403F47023FB60F9
:1010F000FB6843F00103FB600B4A3B68C2F8CC304D
:10110000094AFB68C2F8C83000BF074BD3F8C430A7
:1011100003F40053002BF8D100BF00BF1437BD46C5
:101120005DF8047B704700BF0040005080B485B07C
:1011300000AF78607B681B0403F47023FB60FB68DE
:1011400023F00103FB600A4AFB68C2F8C83000BF05
:10115000074BD3F8C43003F40053002BF8D1044BF1
:10116000D3F8CC3018461437BD465DF8047B704781
:101170000040005090B585B002AF7860002000F0CC
:10118000F1FA00F07FFD7B68DB79002B0AD000F0DC
:1011900077FF00BF00F062FF034683F00103DBB27C
:1011A000002BF7D17B685B7A184600F06FFB00BF1D
:1011B000FFF7D8FD0346002BFAD17B681B7A18464F
:1011C00000F00CFD7B681B7C184600F07FFB7B6801
:1011D0005B7C184600F0A6FB7B689B7C184600F001
:1011E0008BFB7B68DB7C184600F0B2FB7B689B794D
:1011F000002B0AD000F0D8FF00BF00F0FDFF03462F
:1012000083F00103DBB2002BF7D17B68DB78002B86
:1012100002D101F055F811E001F040F87B689888A0
:101220007B68D9787B685B781A467B681B781C469C
:101230007B689B780093234601F054F87B68DB6859
:10124000B3F5803F03D14FF4803000F08BFA01F00A
:1012500005FB00BF0C37BD4690BD000080B483B0D5
:1012600000AF7860064B9A687B68DB430449134003
:101270008B6000BF0C37BD465DF8047B704700BF34
:101280006041005080B483B000AF7860054B9A682D
:1012900004497B6813438B6000BF0C37BD465DF883
:1012A000047B70476041005080B400AF034B5B6823
:1012B0001846BD465DF8047B704700BF6041005092
:1012C00080B483B000AF7860044A7B68136100BFCC
:1012D0000C37BD465DF8047B704700BF604100508D
:1012E00080B483B000AF7860044A7B68D36000BFED
:1012F0000C37BD465DF8047B704700BF604100506D
:1013000080B483B000AF7860054B5A6904497B68AC
:1013100013434B6100BF0C37BD465DF8047B70473B
:101320003C41005080B400AF034B5B691846BD469A
:101330005DF8047B704700BF3C41005080B483B02F
:1013400000AF7860054B1A6804497B6813430B6053
:1013500000BF0C37BD465DF8047B70473C41005030
:1013600080B483B000AF7860064B1A687B68DB43BB
:10137000044913400B6000BF0C37BD465DF8047B89
:10138000704700BF3C41005080B483B000AF78602C
:10139000054B9A6804497B6813438B6000BF0C3788
:1013A000BD465DF8047B70473C41005080B483B07B
:1013B00000AF7860064B9A687B68DB4304491340B2
:1013C0008B6000BF0C37BD465DF8047B704700BFE3
:1013D0003C41005080B483B000AF7860054B5A693F
:1013E00004497B6813434B6100BF0C37BD465DF871
:1013F000047B70477440005080B483B000AF7860C5
:10140000064B5A697B68DB43044913404B6100BFBC
:101410000C37BD465DF8047B704700BF7440005038
:1014200080B485B000AF78607B681B0FFB607B6881
:1014300023F07043BB60FA6813465B0013449B00C3
:101440001A46054B1344BA681A6000BF1437BD46EC
:101450005DF8047B704700BF1044005080B485B035
:1014600000AF78607B681B0FFB607B6823F07043E4
:10147000BB60FA6813465B0013449B001A46054B99
:101480001344BA681A6000BF1437BD465DF8047B88
:10149000704700BF1444005080B485B000AF78603E
:1014A0007B681B0FFB607B6823F07043BB60FA68AE
:1014B00013465B0013449B001A46084B13441A68FA
:1014C000BB681340002B14BF01230023DBB2184676
:1014D0001437BD465DF8047B704700BF0C440050D4
:1014E00080B584B000AF00F039F8F8601A4B1B6883
:1014F00003F00103002B09D0174B9B6803F07F0317
:101500000133FA68B2FBF3F3FB601FE0124B9B68F8
:101510001B0E03F00F030133BB600F4B9B681B0ACC
:1015200003F07F0301337B600B4B9B681B0C03F0C4
:101530007F0301333B60FB687A6802FB03F2BB6800
:10154000396801FB03F3B2FBF3F3FB60FB68184659
:101550001037BD4680BD00BF1047005080B582B037
:1015600000AF084BDB6803F00103002B03D101F04F
:10157000DFF9786001E0044B7B607B681846083730
:10158000BD4680BD1047005000366E0180B584B066
:1015900000AF01F0CDF9F860104B1B6903F00103B7
:1015A000002B16D10D4B5B691B0A03F07F0301333F
:1015B000BB600A4B5B691B0E03F00F0301337B60BA
:1015C000FB68BA6802FB03F27B685B00B2FBF3F3D3
:1015D000FB60FB6818461037BD4680BD10470050C1
:1015E00080B582B000AF00237B60FFF79BFB786083
:1015F000054B1B6A03F001037A6822FA03F31846CD
:101600000837BD4680BD00BF0046005080B582B09F
:1016100000AF00237B60FFF759FB38603B68B3F5F0
:10162000803F03D1FFF75CFF786005E03B68002B4B
:1016300002D1FFF7ABFF7860054B9B6903F007030E
:1016400001337A68B2FBF3F318460837BD4680BD14
:101650000046005080B582B000AFFFF741FF7860D0
:10166000054BDB6903F03F0301337A68B2FBF3F308
:1016700018460837BD4680BD0046005080B582B090
:1016800000AF00237B60FFF72FFB38603B68B3F5AA
:10169000003F03D1FFF724FF78600CE03B68002B8C
:1016A00002D10A4B7B6006E03B68B3F5803F02D174
:1016B0004FF400437B60064B5B6ADBB201337A6810
:1016C000B2FBF3F318460837BD4680BD00366E0105
:1016D0000046005080B582B000AF00237B60FFF76A
:1016E00011FB0346FB70FB78032B0DD1FFF7F8FECF
:1016F0007860134B9B6A1B0CC3F3080301337A68B1
:10170000B2FBF3F37B6016E0FB78002B03D1FFF70D
:1017100009FB78600FE0FB78022B0CD1FFF736FF56
:101720007860074B9B6A1B0CC3F3080301337A688C
:10173000B2FBF3F37B607B6818460837BD4680BD7B
:101740000046005080B500AFFFF700FB0246044B97
:101750005B6903F0010322FA03F3184680BD00BF62
:101760000046005080B483B000AF7860064BDB6861
:1017700023F4803204497B681343CB6000BF0C37ED
:10178000BD465DF8047B70470046005080B483B0CE
:1017900000AF7860064B9B6923F4803204497B6874
:1017A00013438B6100BF0C37BD465DF8047B704767
:1017B0000046005080B483B000AF7860064B5B6A8F
:1017C00023F4403204497B6813434B6200BF0C375B
:1017D000BD465DF8047B70470046005080B483B07E
:1017E00000AF0346FB71074B9B6A23F00302FB79B2
:1017F000044913438B6200BF0C37BD465DF8047B80
:10180000704700BF0046005080B483B000AF03466D
:10181000FB80FB88002B08D10B4BDB680A4A23F4C2
:10182000807323F00103D36007E0074BDB68064AAF
:1018300043F4807343F00103D36000BF0C37BD460F
:101840005DF8047B704700BF1047005080B483B040
:1018500000AF0346FB7100BF0A4BD3F8C43003F05E
:101860000803002BF8D1084BDB6823F04002FB791A
:1018700005491343CB6000BF0C37BD465DF8047BC0
:10188000704700BF004000500043005080B483B058
:1018900000AF0346FB7100BF0A4BD3F8C43003F01E
:1018A0000803002BF8D1084BDB6823F08002FB799A
:1018B00005491343CB6000BF0C37BD465DF8047B80
:1018C000704700BF004000500043005080B483B018
:1018D00000AF7860074BDB6823F0FF027B68013BB9
:1018E00004491343CB6000BF0C37BD465DF8047B51
:1018F000704700BF0046005080B483B000AF7860EE
:10190000074B1B6A23F001027B68013B0449134328
:101910000B6200BF0C37BD465DF8047B704700BF0B
:101920000046005080B483B000AF7860074B1B695D
:1019300023F001027B68013B044913430B6100BFA4
:101940000C37BD465DF8047B704700BF0046005071
:1019500080B483B000AF7860074B5B6923F001026D
:101960007B68013B044913434B6100BF0C37BD4604
:101970005DF8047B704700BF0046005080B483B020
:1019800000AF7860074B9B6923F007027B68013B3F
:10199000044913438B6100BF0C37BD465DF8047BDF
:1019A000704700BF0046005080B483B000AF78603D
:1019B000074BDB6923F03F027B68013B044913437B
:1019C000CB6100BF0C37BD465DF8047B704700BF9C
:1019D0000046005080B483B000AF7860074B5B6A6C
:1019E00023F0FF027B68013B044913434B6200BFB5
:1019F0000C37BD465DF8047B704700BF00460050C1
:101A000080B483B000AF7860084B9B6A23F0FF730B
:101A100023F480337A68013A1204044913438B6239
:101A200000BF0C37BD465DF8047B70470046005090
:101A300080B483B000AF0346FB71044AFB79536066
:101A400000BF0C37BD465DF8047B70470046005070
:101A500080B483B000AF0346FB71044AFB79936006
:101A600000BF0C37BD465DF8047B70470046005050
:101A700080B483B000AF0346FB71074B1A68FB7953
:101A80001340002B14BF01230023DBB218460C3790
:101A9000BD465DF8047B70470046005080B400AF3F
:101AA000084B5B69DBB207EE903AF8EE677A9FED80
:101AB000067A67EE877A17EE903A1846BD465DF8CB
:101AC000047B704700420050ED0DBE3B80B400AF78
:101AD000094B5B691B0ADBB207EE903AF8EE677AB6
:101AE0009FED067A67EE877A17EE903A1846BD4664
:101AF0005DF8047B704700BF00420050EC51B83CD9
:101B000080B400AF064B5B69054A23F4803323F0B1
:101B10000203536100BFBD465DF8047B704700BF00
:101B20001047005080B400AF064B5B69054A43F490
:101B3000803343F00203536100BFBD465DF8047B70
:101B4000704700BF1047005080B483B000AF78608A
:101B500039601A4B5B69194A43F001035361174B13
:101B60005B69164A43F0100353613B68013B1A025C
:101B70007B68013B1B06114913434B610F4B5B69AB
:101B80000E4A43F0400353610C4B5B690B4A23F050
:101B900010035361094B5B69084A43F48023536186
:101BA00000BF064B1B6903F00403002BF9D000BFF4
:101BB00000BF0C37BD465DF8047B704710470050EE
:101BC00080B400AF034B044A5A6100BFBD465DF8C4
:101BD000047B7047104700500300010080B582B0BD
:101BE00000AF0346FB710F4B5B680E4A43F4801352
:101BF0005360FB79012B0ED10A4B5B68094A23F431
:101C0000801353606420FFF7B9F8064B5B68054A00
:101C100043F4002353606420FFF7B0F800BF083797
:101C2000BD4680BD1047005080B400AF044B4FF458
:101C300040325A6000BFBD465DF8047B704700BF6C
:101C40000042005080B400AF044B4FF440329A6021
:101C500000BFBD465DF8047B704700BF00420050E6
:101C600080B400AF064B1B6903F00403002B14BFC4
:101C700001230023DBB21846BD465DF8047B7047A4
:101C80001047005080B400AF124B1B6803F00103F3
:101C9000002B09D10F4B01225A6000BF0D4B1B686E
:101CA00003F00103002BF9D00B4B1B6803F4007306
:101CB000002B0AD0084B4FF400729A6000BF064B0D
:101CC0001B6803F40073002BF9D100BFBD465DF81B
:101CD000047B7047004200500044005080B400AFC5
:101CE000054B01229A60054B4FF400725A6000BF09
:101CF000BD465DF8047B7047004200500044005030
:101D000080B400AF0B4B1B6803F00103002B07D01E
:101D1000094B1B6803F40073002B01D1012300E081
:101D2000002303F00103DBB21846BD465DF8047BD7
:101D3000704700BF004200500044005080B400AF24
:101D400000BF094BD3F8C43003F02003002BF8D1B7
:101D5000064B5B69054A23F00103536100BFBD4692
:101D60005DF8047B704700BF004000500043005006
:101D700080B400AF00BF094BD3F8C43003F0200398
:101D8000002BF8D1064B5B69054A43F00103536110
:101D900000BFBD465DF8047B704700BF00400050A7
:101DA0000043005080B483B000AF786000BF084BA0
:101DB000D3F8C43003F00203002BF8D1054A7B6846
:101DC000536000BF0C37BD465DF8047B704700BF11
:101DD000004000500043005080B483B000AF7860F2
:101DE00000BF084BD3F8C43003F00403002BF8D134
:101DF000054A7B68936000BF0C37BD465DF8047BE5
:101E0000704700BF004000500043005080B483B0D2
:101E100000AF786000BF094BD3F8C43003F008036B
:101E2000002BF8D1064BDA687B6805491343CB6079
:101E300000BF0C37BD465DF8047B70470040005082
:101E40000043005080B483B000AF786000BF0A4BFD
:101E5000D3F8C43003F00803002BF8D1074BDB683C
:101E60007A68D2431146054A0B40D36000BF0C3755
:101E7000BD465DF8047B70470040005000430050B1
:101E800080B400AF00BF094BD3F8C43003F008039F
:101E9000002BF8D1064BDB68054A43F01003D360F2
:101EA00000BFBD465DF8047B704700BF0040005096
:101EB0000043005080B582B000AF0346FB71FB7950
:101EC000002B01D1FFF7DCFF00BF0837BD4680BD06
:101ED00080B483B000AF0346FB7100BF0E4BD3F854
:101EE000C43003F00803002BF8D1FB79002B06D196
:101EF0000A4BDB68094A43F48073D36005E0074B63
:101F0000DB68064A23F48073D36000BF0C37BD46FC
:101F10005DF8047B704700BF004000500043005054
:101F200080B483B000AF03463960FB7100BF0F4B34
:101F3000D3F8C43003F00803002BF8D10C4BDA6857
:101F4000FB799B004FF4702101FA03F3DB431A4045
:101F5000FB799B00396801FA03F305491343CB6011
:101F600000BF0C37BD465DF8047B70470040005051
:101F70000043005080B483B000AF03460A46FB71B3
:101F80001346BB8000BF0F4BD3F8C43003F00803E7
:101F9000002BF8D10C4BDA68FB794FF4805101FA31
:101FA00003F3DB431340B988FA7901FA02F21146D0
:101FB000054A0B43D36000BF0C37BD465DF8047B78
:101FC000704700BF004000500043005080B483B011
:101FD00000AF0346FB7100BF0E4BD3F8C43003F0D3
:101FE0000803002BF8D1FB79002B06D10A4BDB68E4
:101FF000094A43F48063D36005E0074BDB68064A77
:1020000023F48063D36000BF0C37BD465DF8047BCA
:10201000704700BF004000500043005080B483B0C0
:1020200000AF0346FB8000BF0A4BD3F8C43003F077
:102030000803002BF8D1084BDB6823F48062FB888F
:1020400005491343CB6000BF0C37BD465DF8047BE8
:10205000704700BF004000500043005080B400AF04
:10206000064B1B6803F00803002B0CBF0123002361
:10207000DBB21846BD465DF8047B70470043005054
:1020800080B500AF00BF174BD3F8C43003F0800316
:10209000002BF8D1144BDB69134A23F03003D361D2
:1020A00000BF104BD3F8C43003F00803002BF8D165
:1020B0000D4BDB680C4A43F00803D36000BF094BAB
:1020C000D3F8C43003F00403002BF8D1064B0822E8
:1020D0009A6000BFFEF746FE0346002BFAD100BF10
:1020E00000BF80BD004000500043005080B400AFEE
:1020F00000BF094BD3F8C43003F08003002BF8D1A4
:10210000064BDB69054A43F03003D36100BFBD468F
:102110005DF8047B704700BF004000500043005052
:1021200080B400AF00BF094BD3F8C43003F0800384
:10213000002BF8D1064BDB69054A43F03103D3612C
:1021400000BFBD465DF8047B704700BF00400050F3
:102150000043005080B400AF00BF0A4BD3F8C43036
:1021600003F08003002BF8D1074BDB6923F0310328
:10217000054A43F02003D36100BFBD465DF8047BF0
:10218000704700BF004000500043005080B400AFD3
:10219000044B9B6903F001031846BD465DF8047BC0
:1021A000704700BF0043005098B500AF0F4B5B680D
:1021B0000E4A23F4803353600D4B5B6823F4702484
:1021C00024F0300400F0B4FB03460A4AA2FB0323C8
:1021D0001B0D013B1B04064A23435360034B5B6802
:1021E000024A23F40033536000BF98BD10470050EB
:1021F000004700506BCA5F6B80B400AF074B1B6891
:1022000003F46073B3F5607F0CBF01230023DBB2DE
:102210001846BD465DF8047B704700BF104700506C
:1022200080B400AF054B5B68044A43F03003536051
:1022300000BFBD465DF8047B704700BF00470050FB
:1022400080B400AF054B5B68044A43F00103536060
:1022500000BFBD465DF8047B704700BF00470050DB
:1022600080B400AF054B5B68044A23F00103536060
:1022700000BFBD465DF8047B704700BF00470050BB
:1022800080B400AF044B1B6803F001031846BD4641
:102290005DF8047B704700BF0047005080B400AF7A
:1022A000064B5B68054A23F4803323F00203536036
:1022B00000BFBD465DF8047B704700BF104700506B
:1022C00080B400AF064B5B68054A43F4803343F0AB
:1022D0000203536000BFBD465DF8047B704700BF3A
:1022E0001047005080B586B000AFBA607B600346EF
:1022F000FB810B467B73FB891846FFF785FA7B7BD6
:10230000012B40F08480FB89002B09D100F010FBE9
:1023100003464C4AA2FB03239B0C9B057B6102E016
:102320004FF0C0637B617B697A6802FB03F2BB6894
:10233000B2FBF3F37B617B69434AA2FB03231B09D6
:102340009B0D3B61414B5B68404A43F00103536086
:102350003E4B5B683D4A43F0100353603B4B9A6829
:102360003B4B13407A68013A12021A433B69013B26
:102370001B041A43BB68013B1B06344913438B60A3
:10238000324B5B68314A43F0400353602F4B5B682C
:102390002E4A23F0100353602C4B5B682B4A43F406
:1023A0008023536000BF294B1B6803F00403002BFC
:1023B000F9D0264B5B68254A23F00103536000BF28
:1023C000224B1B6803F00103002BF9D17B69214AE2
:1023D000A2FB03235B099B0D3B613A6A3B699A426E
:1023E00002D2386900F04AF87B695B081A4AA2FBFE
:1023F00003235B099B0D3B613A6A3B699A4202D217
:10240000386900F03BF8386A00F038F815E00F4BF7
:102410009B6823F07F023B6A013B0C4913438B60AE
:102420000A4B5B68094A43F00103536000BF074B46
:102430001B6803F00103002BF9D000BF1837BD461D
:1024400080BD00BF83DE1B43ABAAAAAA1047005081
:10245000FF8080F089888888B7600BB680B400AFB1
:10246000054B5B68044A43F48033536000BFBD46AC
:102470005DF8047B704700BF1047005080B582B004
:1024800000AF7860084B9B6823F4FE027B68013B39
:102490001B04054913438B603220FEF76FFC00BF1D
:1024A0000837BD4680BD00BF1047005080B400AF64
:1024B000064B1B6803F00403002B14BF0123002309
:1024C000DBB21846BD465DF8047B704710470050EC
:1024D00080B485B000AF786039600023FB6002E013
:1024E000FB680133FB607A68FB6822FA03F303F0B0
:1024F0000103002B02D1FB681F2BF1D9FB68202BB5
:1025000002D10123FB7206E00649FB683A6841F8F4
:1025100023200023FB72FB7A18461437BD465DF872
:10252000047B70474404002080B586B000AF78601B
:1025300000237B61FEF77EFC38611CE03A697B6911
:1025400022FA03F303F00103002B11D00E4A7B693A
:1025500052F82330FB60FB68002B01D0FB689847E2
:1025600001227B6902FA03F31846FEF76FFC06E0CE
:102570007B6901337B617B691F2BDFD900BF00BF03
:102580001837BD4680BD00BF4404002080B485B02C
:1025900000AF78600023FB6003E000BFFB680133FD
:1025A000FB60FB687A689A42F7D800BF00BF143717
:1025B000BD465DF8047B704798B500AF064A4FF002
:1025C000005314460FCB84E80F0000F007F800F02A
:1025D00041F800BF98BD00BFC4FF002080B483B0A5
:1025E00000AF72B600BF184B184A9A60BFF34F8F06
:1025F00000BF62B600BF144BD3F88830124A43F4D0
:102600007003C2F88830104B5B690F4A23F008034F
:1026100053610F4B03F5805314331B687B607B6859
:1026200023F00F037B607B6843F003037B60084B60
:1026300003F5805314337A681A6000BF0C37BD4627
:102640005DF8047B704700BF00ED00E0000000086B
:102650000010005880B500AF754B1B6803F00103F4
:10266000002B0CD1724B5B68714A43F0010353603D
:1026700000BF6F4B1B6803F00103002BF9D06D4BBB
:102680001B6803F40073002B09D06A4B9B68694AEE
:1026900043F40073936041F64C50FFF777FF664BAD
:1026A0005B68654A43F40023536040F6C410FFF7AB
:1026B0006DFF614B5B68604A23F4803323F00203B3
:1026C00053605E4B5B6803F03003002B29D05B4BFB
:1026D0005B685A4A23F4702323F03003536000F000
:1026E00027F90346564AA2FB03231B0D013B1A049C
:1026F000524B5B68514913434B604F4BDB684E4A6A
:1027000023F00103D3604C4B5B684B4A23F4003346
:10271000536000BF484B1B6803F46073B3F5607FE0
:10272000F8D1454B5B68444A43F001035360424B88
:102730005B68414A43F0100353603F4B414A9A6043
:102740003D4B5B683C4A43F0400353603A4B5B6847
:10275000394A23F010035360374B5B68364A43F421
:102760008023536000BF344B1B6803F00403002B2D
:10277000F9D0314B5B68304A23F00103536000BF4E
:102780002D4B1B6803F00103002BF9D12E4BDB68A6
:102790002D4A43F48033D3602B4B00225A612A4BDD
:1027A00000221A61284B00221A62274B00225A622B
:1027B000254B0022DA61244B03229A611E4B5B6891
:1027C0001D4A23F0400353601B4B204A9A6040F699
:1027D000B830FFF7DBFE00BF174B1B6803F00403A4
:1027E000002BF9D0144B1A4A9A6041F29410FFF76B
:1027F000CDFE00BF104B1B6803F00403002BF9D083
:102800000D4B144A9A6041F27070FFF7BFFE00BF93
:10281000094B1B6803F00403002BF9D00E4B052273
:10282000DA60094B00225A6000F018F800BF80BD42
:102830000042005000440050104700500047005034
:102840006BCA5F6B004F130100460050004F070139
:10285000004F0401004F03016041005080B584B077
:1028600000AF2F4BDB6803F48033002B3ED02D4BA1
:10287000DB6803F00103002B02D02B4BFB6002E06E
:1028800000F056F8F860274B1B6803F00403002B98
:1028900020D0244B9B681B0E03F00F0301337B6099
:1028A000204B9B681B0A03F07F0301333B601D4BE9
:1028B0009B681B0C03F07F030133BB607B68BA6825
:1028C00002FB03F3FA68B2FBF3F23B6802FB03F38B
:1028D000FB600DE0134B9B6803F07F030133BB608B
:1028E000FA68BB68B2FBF3F3FB6001E00E4BFB60E0
:1028F0000B4BDB68DBB20133FA68B2FBF3F3FB602E
:10290000074B1B6903F001030133FA68B2FBF3F3D1
:10291000FB60064AFB68136000BF1037BD4680BDF0
:10292000004600501047005000366E01C0FF0020E6
:1029300080B400AF024B1846BD465DF8047B70477B
:10294000001BB70080B584B000AF7860144B1B68E3
:10295000002B02D1124B134A1A60114B1B68FB600B
:102960007B68033323F003037B600D4B1A687B689D
:1029700013440D4A934207D2094B1A687B681344EB
:10298000074A1360FB6806E000F018F803460C22C3
:102990001A604FF0FF3318461037BD4680BD00BFA8
:1029A00040040020C8040020C0FF002080B400AF15
:1029B00000BFBD465DF8047B70470000014B1868FE
:1029C000704700BF0800002070B50D4E0D4D761BFE
:1029D000B61006D00024013455F8043B9847A642AF
:1029E000F9D1094E094D761BFFF7E0FFB61006D06E
:1029F0000024013455F8043B9847A642F9D170BD34
:102A00003804002038040020380400203804002056
:102A1000844641EA000313F003036DD1403A41D3E9
:102A200051F8043B40F8043B51F8043B40F8043BA8
:102A300051F8043B40F8043B51F8043B40F8043B98
:102A400051F8043B40F8043B51F8043B40F8043B88
:102A500051F8043B40F8043B51F8043B40F8043B78
:102A600051F8043B40F8043B51F8043B40F8043B68
:102A700051F8043B40F8043B51F8043B40F8043B58
:102A800051F8043B40F8043B51F8043B40F8043B48
:102A900051F8043B40F8043B51F8043B40F8043B38
:102AA000403ABDD2303211D351F8043B40F8043BD8
:102AB00051F8043B40F8043B51F8043B40F8043B18
:102AC00051F8043B40F8043B103AEDD20C3205D3E8
:102AD00051F8043B40F8043B043AF9D2043208D0E0
:102AE000D2071CBF11F8013B00F8013B01D30B8852
:102AF00003806046704700BF082A13D38B078DD030
:102B000010F003038AD0C3F10403D21ADB071CBF01
:102B100011F8013B00F8013B80D331F8023B20F86B
:102B2000023B7BE7043AD9D3013A11F8013B00F8A4
:102B3000013BF9D20B7803704B7843708B7883702C
:102B40006046704700010001000000000000000125
:102B5000010100010001010100010000000100016C
:102B6000010100000001010100010000000000005F
:102B7000000101010001010100000001010100014B
:102B8000010100010101000000010001010100013B
:102B9000000000010001000100000001030000002E
:082BA0000000000010000020FD
:102BA80032000000000000001000002000000000BB
:102BB80000000000FC02002064030020CC03002079
:102BC80000000000000000000000000000000000FD
:102BD80000000000000000000000000000000000ED
:102BE80000000000000000000000000000000000DD
:102BF80000000000000000000000000000000000CD
:102C080000000000000000000000000000000000BC
:102C180000000000000000000000000000000000AC
:102C2800000000000000000000000000000000009C
:102C3800000000000000000000000000000000008C
:102C4800000000000000000000000000000000007C
:102C5800000000000000000001000000000000006B
:102C68000E33CDAB34126DE6ECDE05000B00000030
:102C7800000000000000000000000000000000004C
:102C8800000000000000000000000000000000003C
:102C9800000000000000000000000000000000002C
:102CA800000000000000000000000000000000001C
:0400000508000201EC
:00000001FF
