:020000040C00EE
:100000000008001001020008B1020008B102000857
:10001000B1020008B1020008B102000800000000AF
:10002000000000000000000000000000B102000815
:10003000B102000800000000B1020008B10200088F
:10004000B1020008B1020008B1020008B1020008C4
:10005000B1020008B1020008B1020008B1020008B4
:10006000B1020008000000000000000000000000D5
:10007000B102000800000000B1020008B10200084F
:10008000B1020008B1020008B1020008B102000884
:10009000B1020008B1020008B1020008B102000874
:1000A000B1020008B1020008B1020008B102000864
:1000B000B1020008B1020008B1020008B102000854
:1000C000B1020008B1020008B1020008B102000844
:1000D000B1020008B1020008B1020008B102000834
:1000E000B1020008B1020008B1020008B102000824
:1000F000B1020008B1020008B1020008B102000814
:10010000B1020008B1020008B1020008B102000803
:10011000B1020008B1020008B1020008B1020008F3
:10012000B1020008B1020008B1020008B1020008E3
:10013000B1020008B1020008B1020008B1020008D3
:10014000B1020008B1020008B1020008B1020008C3
:10015000B1020008B1020008B1020008B1020008B3
:10016000000000000000000000000000000000008F
:10017000B1020008B1020008B1020008B102000893
:10018000B1020008B1020008B1020008B102000883
:10019000B1020008B1020008B1020008B102000873
:1001A000B1020008B1020008B1020008B102000863
:1001B000B1020008B1020008B1020008B102000853
:1001C000B1020008B1020008B1020008B102000843
:1001D000B1020008B1020008B102000800000000EE
:1001E000B1020008B1020008B1020008750300085E
:1001F000B102000800000000B10200080000000089
:10020000DFF88CD023488047234C244DAC4209DAD8
:1002100021686268A368043BA2BFC858D050FAE7BF
:100220000C34F3E71E4B1F4CA34208DA19685A68D6
:100230000020043AA4BF8850FBE70833F4E71A48CB
:1002400080471A4880470000C43E000C0000002090
:10025000600400002443000C000000300000000097
:10026000C43E000C0008001000000000C43E000C5A
:10027000000800100000000060040020DC06000000
:1002800000000030000E0000000800100000000018
:1002900000080010CD390008480200087802000864
:1002A0007802000890020008393A0008E9020008C4
:1002B000FEE7000008B50B4802F0E6FE02F0B8FBCE
:1002C0004021022002F0C8FB042002F049FB00207C
:1002D00002F0CEFA012002F06FFBBDE8084003F007
:1002E00043BA00BF5C3D00081E481F4AF8B5012113
:1002F000064603F0BBF91C4A1C4D3046002103F0B2
:10030000B5F91B4A30460E2103F0B0F9184A3046C1
:100310000F2103F0ABF900F033F84FF40037284613
:1003200001F076FD044650B1284601F09FFD013CE6
:10033000C1B2A4B2284601F0E7FC002CF4D1736AE4
:100340005A040CD402237360736A1B0454BF012344
:100350004FF480337360284601F032FDDFE77760A9
:10036000F2E700BF00810248703D00081000002045
:100370007C3D0008014801F009B900BF00000020E1
:1003800010B5154800F0AEFB144BDA68C2F3022238
:10039000C2F10701062928BF062102B1013A4FF038
:1003A000FF338B40DB4393409B000D4A0D4C0A49C1
:1003B000DBB282F86B334FF40060C2F88C01236823
:1003C000D060082281F82E204FF41652DB688A6232
:1003D000BDE81040184700BF0000002000ED00E01D
:1003E00000E100E064070020704700BF704700BFD5
:1003F00010B5074C94F83E31DB0700D410BDFFF771
:10040000BFFF94F83E316FF3000384F83E3110BD16
:100410006407002008B50D494022812000F0A8FBA8
:100420000B494022822000F0A3FB4022094903200F
:1004300000F09EFB084801F005FC084A92F83E31A6
:1004400043F0010382F83E3108BD00BFE404002000
:1004500024050020A40400201000002064070020D0
:10046000014801F091BD00BF10000020704700BF9F
:10047000704700BF704700BF010A022918D0032946
:1004800009D0012903D000200346136070470A4BAE
:10049000136012207047C0B20228F4D8074B03EB58
:1004A000800103EB40004B6DB0F8600013607047B3
:1004B000024B13603E207047C83D0008883D00088D
:1004C00010B5054C236820799B6A182198470123B1
:1004D00084F83B3110BD00BF6407002010B5084C04
:1004E000236801215B6A802098472368012284F8F1
:1004F0003B219B6ABDE8104018210020184700BF2F
:100500006407002070B5A94DA94C6E8882B0002305
:10051000ADF80230FFF7A4FF94F83E319B0727D5D2
:100520006B78F6B20C2B10D8DFE803F032AD0F7BFE
:100530000FA3570F646B24070F009E4B1A78042AF1
:1005400000F0D8801B78032B0CD1236801215B6A53
:10055000802098472368012284F83B219B6A182158
:100560000020984794F83E316FF3410384F83E3100
:1005700002B070BD8F4B1A78042AE3D1A988236892
:1005800001F59C711B6B2144012200209847E9E78B
:10059000287810F0030000F08C80012800F0E38040
:1005A0000228D2D1834AAB881278042A01D0002BCA
:1005B000CBD103F00F032C2202FB03431B7AD80795
:1005C000C3D52268C3F38003ADF80230136B022257
:1005D0000DEB020100209847C4E7A9886888C9B2DA
:1005E00001AAFFF749FF0646002873D123680121BD
:1005F0005B6A33E0236870491B6B01220020984737
:10060000B0E784F83961FFF705FF002E4DD094F86C
:100610003E3113F0010500F08D80664B04221A7004
:10062000A0E7022E91D0634B1A78042A00F0908044
:100630001B78032B89D1002E87D12B7803F003037D
:10064000022B82D1AB8813F0FF0F7FF47EAF237AA9
:10065000226843F004032372536A012180209847E3
:100660002368012284F83B219B6A30461821984771
:1006700078E7504BB6B902221A70236830469B695E
:10068000002198476EE72B7803F00303022B37D045
:10069000002B7FF45AAF94F83E2163F3820284F872
:1006A0003E215FE703221A70E7E7424B03221A70EC
:1006B00058E794F83E312268C3F38001C3F3C003C6
:1006C00043EA4103ADF80230136B02220DEB020145
:1006D000984747E7EA88236801991B6B904228BF37
:1006E0001646324600209847019B361A1844C4E942
:1006F0000A6037E7AB886A88234483F8382131E7FA
:100700002C4BA8881B78042B02D000287FF41DAF47
:100710002C2200F00F0302FB03431A7AD5077FF562
:1007200014AF21686FF382021A72C0B24B6A0021C3
:10073000984717E7236801215B6A80209847236860
:10074000012284F83B219B6A28461821984709E733
:10075000C6B1012E7FF406AF94F83E3143F0040396
:1007600084F83E31FEE6134B1B78042B7FF4EDAE8C
:100770002368022200201B6BADF802000DEB020182
:100780009847EFE6A8882C2200F00F0302FB0343F2
:100790001A7AD1077FF52AAF216842F004021A7253
:1007A000C0B24B6A01219847DCE600BFB40A0020C2
:1007B00064070020B10A00209D08002010B50A4CF3
:1007C00094F83B31022B05D0032B0BD1BDE8104030
:1007D000FFF776BE236800219B6A084698470523E9
:1007E00084F83B3110BD00BF6407002010B50C4CED
:1007F00094F83B31042B06D0052B00D010BDBDE88A
:100800001040FFF75DBEFFF77DFE236800221B6BE3
:10081000114610469847032384F83B3110BD00BFB2
:100820006407002070B51A4C1A4D23682946DB6A0C
:1008300008220020984794F83E31082843F002032C
:1008400084F83E310FD1EE8876B195F90030002B57
:1008500017DB2368042284F83B2131469B6ABDE8FC
:1008600070400020184770BD032384F83B31FFF728
:1008700049FE23683246314630461B6BBDE8704066
:100880001847022384F83B31BDE87040FFF73ABEB9
:1008900064070020B40A0020F0B583B009280BD803
:1008A000DFE800F00C3640454D0A86920A0503B099
:1008B000BDE8F040FFF7DABD03B0F0BD474B484D4F
:1008C000012418464FF4A07200212C7003F072F935
:1008D000034644481860C0690190434ADDED017A3F
:1008E00083F83B411A62414959614FF480724FF0DD
:1008F000000541F203045A629A6100211D711C81B6
:1009000017EE903A0846402203B0BDE8F040184781
:10091000324B334A1B681B6A0020107003B0BDE8DD
:10092000F040184703B0BDE8F040FFF75DBD2C4B29
:1009300001221A7003B0BDE8F040FFF757BD274E03
:10094000274A96F83E3101206FF38203022186F890
:100950003B0186F83E31117000252C2700E001355F
:1009600007FB056423896FF30413238123896FF345
:10097000C3032381237A6FF382032372002DEED009
:10098000DBB2DB0707D5336820791B6A9847237AE7
:1009900023F003032372062DE1D13368307900225E
:1009A000A6F838219B6A182103B0BDE8F04018472B
:1009B0000B4B0A4A197882F83A1105221A7003B0D3
:1009C000BDE8F040FFF756BD044A054B92F83A21C6
:1009D0001A7003B0BDE8F040FFF74ABD640700207D
:1009E000B10A0020783E000864050020640600205B
:1009F000F8B53A4C00F00F03012920F07F00B4F85D
:100A00003C7184F83D0184F83C311E4605D0022932
:100A10002ED009B3A4F83C71F8BD2C2505FB034585
:100A20002A89E96842F020022A8149B923682961AC
:100A3000DB6A2879D5E90512984794F83C31E860DB
:100A40002C2202FB064632896FF3C3023281002B4F
:100A5000E0D1FFF7CBFEDDE72C2202FB0342108939
:100A600061F3C3001081002BD4D1FFF7DBFED1E787
:100A70002C2202FB0345AA6A22BB2879020713D164
:100A8000EA698AB11649C9888A420DD02989C1F319
:100A90008611B2FBF1F501FB15222AB92368114634
:100AA0001B6B984794F83C312C2202FB0646002130
:100AB0003289F16161F304123281002BAAD1FFF770
:100AC0007DFEA7E72368E96A1B6B28799847D5E97B
:100AD0000A23121A1844C5E90A20F8BD6407002049
:100AE000B40A002070B5174C05464FF4A0720021DF
:100AF000204603F05FF81448144A226000234FF0A8
:100B000000010370012663F3C711114B114884F8EB
:100B10003B61636141F203064FF4807320625268C7
:100B20002171284626816362A361904738B9236802
:100B30000546DB69402201469847284670BD4FF0C4
:100B4000FF3070BD64070020B10A0020783E000825
:100B5000640600206405002008B5044B1B68DB6BAD
:100B60009847003818BF012008BD00BF6407002067
:100B700010F0800F00F00F03064810B44FF02C0463
:100B800004FB030314BFC3E90812C3E905125DF8AF
:100B9000044B704764070020826A036B816870B45D
:100BA000C1F312019C1A8C4288BF5218017898BF79
:100BB0001A460C0782621BD103F07F0343F0C04347
:100BC00043F400231B4A1268527BCAB11A4A01F04F
:100BD0000F0102EB8101D1F8C42113611368C3F343
:100BE000076161F07B0161F31F6370BC13607047A4
:100BF00082B9104A1268527B4FF40023002AE5D1D3
:100C00000D4A406A01F00F0102EB8101D1F8C421C5
:100C10005061E2E74468C66A084BC4F3C625921BDC
:100C20006C1E1444C2F31202B4FBF5F403EAC4438D
:100C30001343C7E7A4080020A80800200000F81FFD
:100C4000F0B50678036B876A8268DFF8A0C006F00B
:100C50000F0505F16A01A3EB070EC2F312025CF85F
:100C60002110964528BFBB180C68836253B94FF416
:100C70000023C4F3076262F07B0262F31F640B611E
:100C80000C60F0BD320718D04668C76A154AC6F333
:100C9000C62E0EF1FF36DB1BB6B216FA83F6B6FB94
:100CA000FEF602EAC646104A1268527BC3F31203EC
:100CB00033436AB9426A4A61DBE7C26A9B1A0A4A4D
:100CC0001268527BC3F3120343F40023002AF1D0CD
:100CD000012ACED1DCF8A401466B02FA05F53543B2
:100CE0004563C6E70000F81FA4080020A8080020FC
:100CF00040F2DF10704700BF044BD3F8A4215368C3
:100D00006FF3410353600020704700BFA808002024
:100D1000044BD3F8A421536843F00203536000202E
:100D2000704700BFA8080020F0B41A4D067B95F864
:100D3000FE31002003F0010C4EB303460446342775
:100D400008E05268013312F0100FDAB218BF012424
:100D5000B2420AD207FB035251680907F1D50133A9
:100D6000DAB2B2424FF00104F4D304F0010495F872
:100D7000FE31C3F3800343F0080343EA4C0343EA24
:100D8000840404F01F0464F30700F0BC70470446B9
:100D9000EDE700BFA808002070B5124E00F00F026A
:100DA000342303FB02635D68C5F30014ED0602D42F
:100DB0001879400701D4012070BD5869DD68DC62F4
:100DC000814228BF014602EB420002EB800006EBA5
:100DD00080009C621C6119635D62FFF7DDFE2046A6
:100DE00070BD00BFA8080020044BD3F8A4311A68D6
:100DF00011B960F30A121A6000207047A808002099
:100E000000F00F02E1B13423204903FB02F3000696
:100E1000CB5C03F00F034BBF6A3301EB830351F844
:100E20002300D3F8C401036843F4001303603423A0
:100E300003FB02120020137943F020031371704763
:100E400010B43423114903FB02F30006CB5C03F01A
:100E50000F034BBF6A3301EB830351F82340D3F8F0
:100E6000C4412368C3F30F4020F4815040F4805004
:100E700060F31F432360342303FB02120020137925
:100E80005DF8044B6FF3451313717047A8080020F9
:100E900000F00F0034220E4B02FB00F299561A4468
:100EA0000029516810DB6FF304115160342202FBFA
:100EB000003300201A7918616FF34512C3E90A0064
:100EC0001A719861186370476FF3C3015160EDE7C1
:100ED000A80800202DE9F041384B00F00F00342124
:100EE00001FB00F15A18D3F8A4611479D6F81CC09C
:100EF000670748D524F0240413F801E014715468FE
:100F0000002565F304145460546865F3C304546009
:100F10005D5601240EF00F01002D674604FA01F41E
:100F20004FF0904E32DB127995073FD101F16A0202
:100F3000E44353F82220A5B205EA0C0868F30F0732
:100F4000C2F800E003EB81011D4AD1F8C411126818
:100F5000C1F800E0527B05EA1C4C012A6CF31F47E4
:100F600027D0342202FB0030F7618188B3F8FC21DE
:100F7000C1F383100121814022EA0102A3F8FC2180
:100F80000020BDE8F0810120BDE8F08101F16A0593
:100F9000E44353F82550C5F800E01279A5B205EAFC
:100FA0000C08920768F30F07CCD0DAE7E443A5B248
:100FB000C8E7726B14407463D3E700BFA808002031
:100FC000A4080020034BD3F8A4319868C0F30D2087
:100FD000704700BFA8080020054B93F8FE0100F001
:100FE0000500A0F10500B0FA80F04009704700BF8D
:100FF000A80800200748D0F8A42108B5536843F09A
:101000000203536000214FF4027202F0D3FD00206E
:1010100008BD00BFA80800202DE9F84FA04E0446E7
:1010200000F00F0000EB400300EB83003425D6F8FE
:10103000A431174688462A46002106EB800004F0BA
:101040000F0AD3F81C9002F0B5FD05FB0AF206EB7F
:10105000020CB454DCF8041007F07F0321F47E3155
:10106000DB0221F0040143F004030B43CCF804300D
:101070004946002C7FD0DCF808508A4B4FF6C07EE2
:101080006EF31205CCF80850B55C874A05F00F05E1
:1010900003EB850B02F5E06E60B253F82530DBF808
:1010A0001C40CCF8144002EB05220EEB052400286E
:1010B000CCE90723CCF80C407EDA05F16A0208F08F
:1010C000030356F822E0DEF800C09B042CF4482C01
:1010D00043F4004343EA0C0CB8F1000F79D067F3F6
:1010E0000A0CCCF30F4323F4815343F48053B6F836
:1010F000FC2163F31F4C0124002322424FEA440BDE
:1011000000F0A5800133072B1FFA8BF4F5D11442B0
:1011100000F09F800023342202FB0A6A0122BAF801
:101120000440AA4092B263F3995C63F389140028E7
:1011300042EA0903AAF8044063F30F01CEF800C0A5
:1011400080F28B80B8F1000F70D106EB8505D5F8E1
:10115000C441236823F4482343F40043202F00F0C4
:10116000928069D8082F00F08A80102F51D1022078
:1011700060F30A034DE0DCF808504A4B4FF0400E94
:101180006EF31205CCF80850B55C474A05F00F0520
:1011900003EB850002F5E06E53F82530C069CCF80A
:1011A000203002EB05220EEB0523CCF81400CCF81E
:1011B0001C202046CCF80C30B8F1000F14D105F1FA
:1011C0006A0356F823E0DEF800C02CF4482C4CF4F7
:1011D000004C202F5FD034D8082F58D0102F80D14A
:1011E000022363F30A0C7CE706EB850308F003088F
:1011F000D3F8C441236801224FEA884848F40048E4
:1012000023F4482302FA05F548EA0303AAB267F378
:101210000A03C3F30F4020F4815040F4805042EAA7
:10122000194960F31F4369F31F412360D6F8A431C5
:101230000020D961BDE8F88F402FEAD16FF30A038F
:10124000E7E7402F7FF44DAF6FF30A0C49E703F057
:101250000F031443A6F8FC415DE706EB850508F093
:101260000300D5F8C4412368800423F4482340F4E4
:1012700000400343B8F1000F3FF470AFC7E703200D
:1012800060F30A03C5E7012060F30A03C1E7032303
:1012900063F30A0C25E7012363F30A0C21E700BF7F
:1012A000A8080020600400200000003030B504468B
:1012B00083B04E4801F0E2F901F034FC4C4A4D4B4A
:1012C0001460A3F11C0103F11C00402243F8042F19
:1012D000834241F8042FF9D1474D4FF4027228465A
:1012E000002102F067FCD4E90032A168C5F80022B1
:1012F00003F50062C5E96832C5F8041205F5D47239
:1013000003F5106105F5E27542F8041BAA4201F1EC
:101310002001F9D1394A03F5306102F11C0042F88D
:10132000041B824201F12001F9D1354A03F58051B5
:1013300002F11C0042F8041B824201F58051F9D1F0
:10134000647B9968B4FA84F25209520101F05E009C
:1013500062F07E02024362F307019960DA6842F0AC
:10136000804242F48072DA60D3F8002822F400024E
:1013700022F0030242F00302C3F80028D3F8042845
:10138000002142F00202C3F804280191019A42F0C0
:1013900020020192019A102161F38A120192019AAE
:1013A0001A611A690192019A9006C2F34011F8D4A9
:1013B0000091009A42F010020092009A1A611A6994
:1013C0000092009AC2F30010D206F8D40D490E4ADA
:1013D0009861012C08BF0A460C2161F317424FF0B7
:1013E000FF3159619A6103B030BD00BF8000002019
:1013F000A408002078040020A80800206C0A00201F
:10140000880A00201E3C00C00E3C00C0F8B50E4FFC
:10141000342404FB007405462069A369824228BF76
:1014200002460846E1681944164602F029FB236982
:101430009B1B23610BB1A3693344342000FB05756A
:101440003046AB61F8BD00BFA8080020F8B5164FC4
:1014500000F00F06342404FB06742379580704D5E2
:1014600063681B0703D50020F8BD0120F8BDD4E94F
:101470000705954228BF15462A4602F001FB63681E
:10148000E269256306EB4600002143F0080306EB02
:10149000800007EB8000C4E909216360E162FFF787
:1014A000CFFB206BF8BD00BFA80800202DE9F0415C
:1014B000234F07EB8003D3F8C4311B681B0401D40E
:1014C000BDE8F081342606FB0076726A002AF7D068
:1014D0008C08D7F8E0C10AD04FEA840E002300E060
:1014E000726ADCF80050D55004339E45F8D121F0E3
:1014F0000306B14219D0DCF8005016D98E1B4FF00C
:10150000340C4FEAC60EA4000CFB007C00224FF006
:10151000FF0808FA02F32B40D340DCF824600832BD
:101520007245335504F10104F3D1342303FB0070F9
:10153000C26A436A0A441944C2624162BDE8F0814A
:10154000A808002070B4047BD4B100230E4E1846C6
:10155000342508E05268013312F0100FDAB218BFD8
:101560000120A2420AD205FB036251680907F1D5A6
:101570000133DAB2A2424FF00100F4D370BC7047DD
:10158000204670BC704700BFA80800202DE9F04F2E
:10159000BB4CD4F8A0319E695D698FB03540EBB289
:1015A00001932B07814607D5D4F8003209209847CC
:1015B000D4F8A03108225A6199F80D30012B00F0BF
:1015C00069816805C5F3072604D5D4F8A0314FF426
:1015D00080625A61310700F14881002D4FEA15679A
:1015E00008DAD4F8003208209847D4F8A0314FF038
:1015F00000425A617A0625D4F30634D4B60600F1C7
:10160000BF806803C5F3074B00F1DB801BF0080FB8
:1016100040F05C81019B5F0711D5D4F8A0315D6873
:101620006E070BD594F8FE31D4F800226FF38203D5
:1016300084F8FE3101209047D4F8A0315D600FB0EE
:10164000BDE8F08F94F8FE31D4F8002243F0040393
:1016500084F8FE3100209047D4F8A0314FF080424A
:101660005A61F306CAD5D4F8A4018649436843F009
:101670000103436001F11C0C51F8047B3B68C3F388
:101680000F4222F4026242F4006262F31F438C456F
:101690003B60F1D1D4F8A0317B497C4A7C4F4FF0BC
:1016A000400CC3F824C09962C3F8042130313032B1
:1016B000C3F80871C3F80C113037C3F8102130316A
:1016C0000022C3F81471C3F818110B920B9A42F060
:1016D00020020B920B9A102161F38A120B920B9A43
:1016E0001A611A690B920B9A9706C2F34011F8D44B
:1016F0000C910C9A42F020020C920C9A61F38A121F
:101700000C920C9A1A611A690C920C9AC2F340114D
:101710009206F8D40D910D9A42F010020D920D9A96
:101720001A611A690D920D9AD706C2F30011F8D406
:101730004FF00113C3614369D4F8002243F00F0353
:101740004361036943F00F030361036861F30A1304
:10175000036099F80D30012B08BF416363686FF394
:101760000413636063686FF3C303636004209047EE
:10177000D4F8A0314FF48052B6065A617FF541AFDC
:10178000D4F8A81194F8FE310A68D4F8006223F066
:1017900005036FF30A0243F005030A60022084F890
:1017A000FE31B047D4F8A021D368092161F38D231D
:1017B00068034FF40051D360C5F3074B51617FF5C7
:1017C00025AFD4F8A4319A691B69194693B20293E4
:1017D000002B00F03A810023184603931E46029B1B
:1017E000CDF818B04FF0340A8B46D90740F1248168
:1017F00000F16A070AFB00FED4F8A41154F8273060
:1018000014F80E20D3F808804D6B99F80DC00491A0
:1018100002F00F02D540ED01EDB245EA0B0505924D
:10182000A64405EA0805BCF1000F40F0EF801A69F4
:101830000392EA0740F1FF80039B33F0604308D135
:101840000AFB0042D2E90A13D162C91A536A194449
:1018500051620AFB00418A6A0B6B9A4240F0E580B4
:101860004B686FF3C3034B6004E1D4F800320620E9
:101870009847D4F8A0314FF400625A61ADE600BF3A
:10188000A80800206C0A0020400010005000100042
:1018900060001000019BDF067FF593AED4F8A03105
:1018A0006FF304169E61186AC0F3434202F00B0204
:1018B000022A07D1C0F30A1100F00F00FFF7F6FD6E
:1018C000D4F8A03146F010069E617AE6D4F8A4312F
:1018D0009A69DF695B690393C7F30F47002317EA2F
:1018E000124702935AD0029D04973B462E464FF072
:1018F0003408D9074CD505F1700B04EB8B03039A20
:101900005B6899F80D109F681740002969D11A6922
:1019100002923A075FFA87FA46D508FB0540029B18
:1019200090F804C0C3F34173C3F1030361F3451C92
:10193000DB0080F804C0036108FB05430021586800
:101940006FF304105860D4F804320846984704EB4B
:101950008B0308215B681AF0010F996017D099F882
:101960000D3023B308FB0540026B836A9A4231D1E4
:101970004268C36A03616FF30412426004EB8B0B8D
:10198000D4F80432012130469847DBF804309F60D8
:10199000049B0136F6B233413546AAD1D4F8A031C2
:1019A0004FF400225A6135E61AF0010FEFD0029B86
:1019B00008FB0542C3F31201D2E90A305B1A516AEF
:1019C000D3621B1A08FB05400B445362026B836A07
:1019D0009A42CDD004EB8B0BFFF7DEF8DBF8043036
:1019E000D5E738075FFA87FA0CD508FB05400129CF
:1019F00003796FF3451303719ED10369C16A0B44E8
:101A0000036199E71AF0010FACD1C0E7BCF1010FF7
:101A100001D1290637D4EA070DD50AFB004EDEF8BE
:101A20003020DEF828309A4214D00AFB0040FFF73D
:101A300007F954F827309D60029B0136F6B2334116
:101A400030467FF4D2AEDDF818B0D4F8A0310022D1
:101A50005A61DBE5DEF80430BCF1010F6FF3C3031C
:101A6000CEF8043006D1049A536B0CFA00F023EA46
:101A700000035363D4F80432022146F080009847F3
:101A800054F82730D7E7059ADEF82CC0DEF828E0B6
:101A900002F16A08BEEB0C0154F828800791D8F8CF
:101AA000188030D003311FFA88F8B8EB910F4FEA55
:101AB000910E3BD3BEF1000F3DD0059A0AFB0041C9
:101AC00002F1780C059154F82C200991496A08918B
:101AD00001EB8E0E94460499089ADDF81480CDF837
:101AE00014B09B4652F8043BCCF800307245C8F85D
:101AF0002420F7D1099A0491D26A07995B46DDF850
:101B000014B001EB020C0AFB00480799D8F8242016
:101B1000C8F82CC00A44C8F82420EA078BD599F8E5
:101B20000DC0BCF1000F7FF478AF85E64FEA880264
:101B30000792C646BEE7079A9444E4E708B503480F
:101B400000F09CFDBDE8084000F0ECBF80000020E4
:101B500008B5034800F086FDBDE8084000F0EABF84
:101B6000800000200D2808D8DFE800F02F070707C5
:101B700036073D0D0D141A2107281E4AD2F8A02160
:101B80000023536170471B4AD2F8A0214FF0004355
:101B900053617047174AD2F8A02108235361704758
:101BA000144AD2F8A0214FF4806353617047114A60
:101BB000D2F8A0214FF40053536170470D4AD2F878
:101BC000A0214FF40023536170470A4AD2F8A021A4
:101BD0004FF0804353617047064AD2F8A0214FF47A
:101BE000805353617047034AD2F8A0214FF4006339
:101BF00053617047A8080020024B6A3153F8213026
:101C000098607047A8080020034B03EB8101D1F8CE
:101C1000C4319860704700BFA8080020034BD3F878
:101C2000A421536918435061704700BFA8080020E1
:101C3000034BD3F8A421136918431061704700BF08
:101C4000A808002000230222032110B58174044655
:101C500043618361C361827102730121104400F00A
:101C600083FB08B9002010BD012104F1080000F039
:101C70007BFB0028F6D004F10E000121BDE81040E6
:101C800000F072BB0E4B1B78042B17D18369ABB1EC
:101C900010B583780B4A0C46204603F00F0123F061
:101CA0007F0382F83C1182F83D3101F0E9FF002208
:101CB00081B22046BDE8104001F0A0BA0220704772
:101CC000B10A00206407002030B40D4B1C78042CAE
:101CD00012D10B46816979B184780A4D184604F017
:101CE0000F0324F07F04114685F83C3185F83D410F
:101CF000002230BC01F082BA022030BC704700BF25
:101D0000B10A002064070020104B1B78042B1AD165
:101D10008369C3B110B583780D4A0C4603F00F01F7
:101D200023F07F0382F83C1182F83D3100F0A8FADD
:101D300020B900F057FA00F0DBF918B9204600F09E
:101D4000B7FA002010BD0220704700BFB10A002082
:101D500064070020184B1B78042B22D1836903B33E
:101D60008278164902F00F002C2303FB001322F0A7
:101D70007F0281F83D2181F83C0193F90420002A7B
:101D8000B4BF9B8B9B890BB90020704710B582B004
:101D900000F076FA044600F025FA24B1002002B0E3
:101DA00010BD0220704700F0A3F90028F7D1019080
:101DB00000F018FA0198F2E7B10A00206407002049
:101DC000114B1A78042A00D070478269002AFBD090
:101DD00010B483780D4903F00F042C2223F07F0305
:101DE00002FB041281F83D3181F83C419368D90629
:101DF00006D4137A9B0703D55DF8044BFFF7AABFFF
:101E00005DF8044B704700BFB10A00206407002052
:101E1000144B1B78042B19D18369BBB1027A124988
:101E200002F00F002C2322F07F0203FB001381F845
:101E30003D2181F83C019A68920607D593F9042068
:101E4000002AB4BF988B988910B170470020704762
:101E500000B583B0019000F09BF9019803B05DF8E4
:101E600004FB00BFB10A002064070020284B1B7848
:101E7000042B49D18369002B46D010B5027A254C3A
:101E800002F00F002C2322F07F0203FB004384F8B2
:101E90003D2184F83C019A68920682B0014630D513
:101EA00093F90420002A22DB9B8943B94FF0FF30CD
:101EB0002C2303FB0144A3899BB102B010BD00F0A9
:101EC0000FFA94F83C112C2303FB014300B293F961
:101ED0000430002BECDA2C2303FB0144A38B002BF2
:101EE000EBD1019000F054F9019802B010BD9B8B2A
:101EF000002BE4D12C2303FB01444FF0FF30A38BD4
:101F0000EDE74FF0FF30D8E74FF0FF30704700BFEC
:101F1000B10A002064070020154B1B78042B06D162
:101F200030B5836983B0044613B903B030BD704740
:101F3000104A837B104D92E803006A4682E8030052
:101F400003F00F0185F83C1123F07F0310460821B0
:101F5000002285F83D3101F051F90022022104F1FF
:101F6000160001F04BF900F03DF903B030BD00BFA1
:101F7000B10A0020B83E000864070020704700BF87
:101F8000704700BF704700BF38B5414B93F83E2102
:101F9000940705D53F4A017804469088884200D0CE
:101FA00038BD517820390329FAD8DFE801F04925F6
:101FB000120211782129F3D193F83E01518802468B
:101FC0006FF34102C9B2204683F83E21FFF7DAFFE2
:101FD00038BD11782129E3D193F83E119078D57856
:101FE0000A466FF3410240EA052183F83E2120466C
:101FF000A182FFF7C5FF38BD1278A12AD0D193F88E
:102000003E1193F83C216FF341012C2083F83E11DF
:1020100000FB02339A68D006FCD41A7A9107F9D5EE
:10202000A06900F071F9207F00F042F9607F00F0B4
:102030003FF9A07F00F03CF9BDE8384000F0D2B88D
:102040001278212AACD193F83E0193F83C21124931
:102050006FF341002C2583F83E0105FB023302E0BB
:102060000A78002A9CD09A689206F9D500F066F9A1
:10207000A06100F035F9207700F032F9607700F0C8
:102080002FF9A07700F084F82046FFF777FF38BDDE
:1020900064070020B40A0020B10A002038B5124BB2
:1020A0001B78ABB1114C94F83E3194F83D5194F843
:1020B0003C1100229B0745EA0105A4F83C2108D405
:1020C00005F00F0325F07F0584F83C3184F83D517D
:1020D00038BDFEF717FA05F00F0325F07F0584F8E9
:1020E0003C3184F83D51F3E7B10A00206407002039
:1020F0002DE9F041244C254D23689B6B984794F8BB
:102100003C312C2606FB0342804692F9041000293C
:102110004FF064071FDB9268920632D42A7802F0EF
:10212000FF0112B3052923D006FB03431B7A5B078B
:1021300021D423689B6B9847804503D07B1EDBB27C
:10214000E7B11F4694F83C3106FB0342804692F902
:1021500004100029DFDA9168C1F30010C906DDD44C
:10216000127A9107DAD5BDE8F0810220BDE8F0814E
:102170000320BDE8F0810120BDE8F0810420BDE826
:10218000F0810020BDE8F08164070020B10A002042
:1021900070B5134D95F83C412C2303FB0454237A6E
:1021A00099071CD52B68A269DB6A61692079984779
:1021B000A26800211207C4E9030103460FD470B9D5
:1021C0002289A169207942F008022281228963F3E1
:1021D000451222812B68BDE870409B6A184770BD8C
:1021E000640700202DE9F041224D95F83C412C2355
:1021F00003FB0454A368D80627D4237A990724D56F
:10220000D4E9071223891C4EE26243F01003002236
:102210004FF400682381A162E261C6F88C80BFF3AD
:102220004F8FBFF36F8F2B68A26A1B6BE16A207917
:10223000124F9847D4E90A321B1A1118C4E90A311F
:10224000C6F80C803B78012B01D0BDE8F0812079E5
:102250000207FAD0A368C3F30016DB06FAD4238979
:1022600043F0100323812B6832461B6B98473E7066
:10227000EBE700BF6407002000E100E098040020C5
:102280000A4A92F83C312C2101FB032393F90420E4
:10229000002A04DBD868003818BF01207047D869CD
:1022A0005B6A98422CBF0020012070476407002021
:1022B00030B40A4D95F83C112C2404FB0154E36919
:1022C000626A9342FDD22C2202FB0152116AC85469
:1022D000D369013330BCD361704700BF640700206D
:1022E000084A92F83C312C2101FB0323DA683AB109
:1022F000D3E90410013A405C0131C3E9032170477E
:10230000FEE700BF6407002010B40B4C94F83C11AA
:102310002C2202FB0142536AD269033B9A42FDD24E
:102320002C2303FB01435DF8044B196A8850DA69DA
:102330000432DA61704700BF64070020094991F850
:102340003C312C2202FB0312D268032AFDD92C2037
:1023500000FB0313D3E90410043A4058DA60043157
:102360001961704764070020002937D001392DE931
:10237000F843C9B2831D0625DFF86880184F04466C
:1023800015FB01352C2616E0638811892078107121
:102390009B0103F4FE5343F0030339400B431381C5
:1023A000030604F1060404D4D8F8003091699B6A4E
:1023B0009847AC420FD0D8F8003020786288DB69AB
:1023C000217900F00F09984706FB09820028DBD02D
:1023D0000020BDE8F8830120BDE8F88301207047A4
:1023E0003CE0FFFF64070020024A936818439060B6
:1023F000704700BF74400050024A936823EA00000F
:102400009060704774400050024A1369184310618D
:10241000704700BF74400050014B5868704700BFC0
:1024200074400050014BD860704700BF74400050AA
:10243000024B186900F47060704700BF0040005004
:10244000014B1861704700BF00400050024B8000F4
:1024500003445868704700BF28400050024B80007A
:1024600003445960704700BF28400050800000F1CD
:10247000A04000F580400123D0F8A02003FA01F12C
:102480001143C0F8A0107047800000F1A04000F593
:1024900080400122D0F8A03002FA01F123EA0103C2
:1024A000C0F8A030704700BFC902044B41EA0010D9
:1024B00040F40800C3F88C00704700BF0040005093
:1024C000034AD2F88C3023F00103C2F88C307047F5
:1024D00000400050034AD2F88C3043F00103C2F8A8
:1024E0008C30704700400050034BD3F88C00C04341
:1024F00000F00100704700BF00400050024BD3F8CD
:102500009000C0F38030704700400050084B084AEC
:10251000D3F88C00D3F890301B04D2F88C3043F001
:10252000020354BF00F001000220C2F88C30704753
:1025300000400050054BD3F88C20D2075ABFD3F887
:102540009000C0F309006FF0004070470040005059
:10255000024BD3F89000C0F3C030704700400050E9
:102560000004074B00F4702040F00100C3F8CC10C9
:102570001A46C3F8C800D2F8C4309B04FBD4704795
:1025800000400050064A000400F47020C2F8C80061
:10259000D2F8C4309B04FBD4D2F8CC00704700BF03
:1025A00000400050024A936823EA000090607047A0
:1025B00060410050024A936818439060704700BF22
:1025C00060410050014B5868704700BF60410050A7
:1025D000014B1861704700BF60410050014BD8604B
:1025E000704700BF60410050024A53691843506170
:1025F000704700BF3C410050014B5869704700BF15
:102600003C410050024A136818431060704700BFF5
:102610003C410050024A136823EA000010607047F2
:102620003C410050024A936818439060704700BFD5
:102630003C410050024A936823EA000090607047D2
:102640003C410050024A536918435061704700BF33
:1026500074400050024A536923EA000050617047F9
:1026600074400050030F044A03EB430320F0704012
:1026700042F82300704700BF10440050030F044A83
:1026800003EB430320F0704042F82300704700BF83
:1026900014440050030F064A03EB430352F823305F
:1026A000184030F0704314BF01200020704700BF75
:1026B0000C440050124BDB68DA0710B51CD51148EA
:1026C0000F4A1368DB0706D5936803F07F030133D5
:1026D000B0FBF3F010BD946891689268C2F30642B3
:1026E000C4F30364531CC1F3062204FB033302FB4F
:1026F0000000B0FBF3F010BD01F032F8E0E700BFDE
:102700001047005000366E01034BDB68DB0701D534
:102710000248704701F024B81047005000366E019F
:1027200008B501F01DF8084B1A69D2070BD45A6995
:102730005B69C3F303630133C2F306225B0002FB50
:102740000000B0FBF3F008BD10470050054B0649F0
:102750001A6908681B6A02F0010203F00103904045
:10276000D840704700460050C0FF002008B5084B15
:102770009B69DB0309D5FFF79DFF054B9B6903F0C0
:1027800007030133B0FBF3F008BDFFF7C9FFF4E71F
:102790000046005008B5FFF78DFF044BDB6903F0DE
:1027A0003F030133B0FBF3F008BD00BF004600500B
:1027B00008B50D4B5B6A03F44033B3F5003F0FD00F
:1027C00063B1B3F5803F14BF00204FF40040064BC7
:1027D0005B6ADBB20133B0FBF3F008BD0348F6E7F8
:1027E000FFF768FFF3E700BF0046005000366E01B8
:1027F00010B5124CA36A03F00303032B0BD01BB1DB
:10280000022B11D0002010BD0D4A2369106803F07F
:102810000103984010BDFFF74DFFA36AC3F30843BF
:102820000133B0FBF3F010BDFFF77AFFA36AC3F3E7
:1028300008430133B0FBF3F010BD00BF0046005069
:10284000C0FF0020034B044A5B69106803F00103DA
:10285000D840704700460050C0FF0020034AD368AC
:1028600023F480330343D360704700BF0046005019
:10287000034A936923F4803303439361704700BF95
:1028800000460050034A536A23F440330343536223
:10289000704700BF00460050034A936A23F00303C9
:1028A00003439362704700BF00460050074AD36855
:1028B00028B923F4807323F00103D360704743F4F5
:1028C000807343F00103D360704700BF104700508E
:1028D000054AD2F8C4301B07FBD4044AD36823F05E
:1028E00040031843D0607047004000500043005040
:1028F000054AD2F8C4301B07FBD4044AD36823F03E
:1029000080031843D06070470040005000430050DF
:10291000034AD368013823F0FF030343D3607047B1
:1029200000460050034A136A013823F001030343B1
:102930001362704700460050034A1369013823F0C0
:10294000010303431361704700460050034A536973
:10295000013823F0010303435361704700460050E0
:10296000034A9369013823F00703034393617047D7
:1029700000460050034AD369013823F03F03034364
:10298000D361704700460050034A536A013823F070
:10299000FF0303435362704700460050054A936AA1
:1029A00023F0FF73013823F4803343EA004393623A
:1029B000704700BF00460050014B5860704700BF91
:1029C00000460050014B9860704700BF0046005021
:1029D000034B1B68184214BF01200020704700BF42
:1029E00000460050064B9FED077A5B69DBB207EEAD
:1029F000903AF8EEE77A67EE877A17EE900A70471A
:102A000000420050ED0DBE3B074B9FED087A5B691D
:102A1000C3F3072307EE903AF8EEE77A67EE877A7A
:102A200017EE900A704700BF00420050EC51B83CCE
:102A3000034A536923F4803323F002035361704740
:102A400010470050034A536943F4803343F00203B4
:102A500053617047104700500F4B5A6942F0010212
:102A60005A615A6901380006013942F0100240EA01
:102A700001205A6158615A6942F040025A615A690C
:102A800022F010025A615A6942F480225A611A698E
:102A90005207FCD5704700BF10470050014B024A57
:102AA0005A61704710470050030001001A4A5368EA
:102AB000012843F4801310B5536011D0174C00F077
:102AC00053FE174B2268A3FB0232930C642202FBD5
:102AD00003F222B1002300BF01339A42FBD110BDA3
:102AE00053680E4C23F48013536000F03DFE0C4AF3
:102AF0002368A2FB03239B0C642202FB03F222B196
:102B0000002300BF01339A42FBD1034A536843F4C8
:102B100000235360D3E700BF10470050C0FF0020E0
:102B200083DE1B43024B4FF440325A60704700BFB4
:102B300000420050024B4FF440329A60704700BF91
:102B400000420050024B1869C0F38000704700BF7C
:102B500010470050094A1368DB0704D4012353606F
:102B60001368D807FCD5064A1368990505D54FF4B4
:102B70000073936013689B05FCD4704700420050BB
:102B8000004400500349044B01204FF40072886058
:102B90005A6070470042005000440050054B1868CE
:102BA00010F0010005D0D3F8000280F40070C0F3EB
:102BB0004020704700420050054AD2F8C4309B06BE
:102BC000FBD4044A536923F001035361704700BFEB
:102BD0000040005000430050054AD2F8C4309B0624
:102BE000FBD4044A536943F001035361704700BFAB
:102BF0000040005000430050034AD2F8C4309B0705
:102C0000FBD4024B58607047004000500043005016
:102C1000034AD2F8C4305B07FBD4024B986070477C
:102C20000040005000430050044AD2F8C4301B0753
:102C3000FBD4034BDA681043D86070470040005063
:102C400000430050054AD2F8C4301B07FBD4044AA5
:102C5000D36823EA0000D060704700BF00400050F6
:102C600000430050054AD2F8C4301B07FBD4044A85
:102C7000D36843F01003D360704700BF004000509A
:102C80000043005048B9054AD2F8C4301B07FBD4B2
:102C9000034AD36843F01003D360704700400050EC
:102CA00000430050074AD2F8C4301B07FBD4064A41
:102CB000D36818B943F48073D360704723F48073EA
:102CC000D3607047004000500043005010B4094AE0
:102CD000D2F8C4301B07FBD4074C8000E3684FF4E4
:102CE00070228240814023EA02000843E0605DF8E0
:102CF000044B7047004000500043005010B4094A94
:102D0000D2F8C4301B07FBD4074C4FF48053E26861
:102D10008340814022EA03030B43E3605DF8044BE8
:102D2000704700BF0040005000430050074AD2F8EF
:102D3000C4301B07FBD4064AD36818B943F4806338
:102D4000D360704723F48063D36070470040005025
:102D500000430050054AD2F8C4301B07FBD4044A94
:102D6000D36823F480631843D0607047004000505C
:102D700000430050034B186880F00800C0F3C00007
:102D8000704700BF00430050104AD2F8C430180604
:102D9000FBD40F490D4ACB6923F03003CB61D2F845
:102DA000C4301907FBD40A49084ACB6843F008032A
:102DB000CB60D2F8C4305B07FBD4054B034A082133
:102DC0009960D2F8C430002BFBD17047004000500E
:102DD00000430050054AD2F8C4301B06FBD4044A15
:102DE000D36943F03003D361704700BF0040005007
:102DF00000430050054AD2F8C4301B06FBD4044AF5
:102E0000D36943F03103D361704700BF00400050E5
:102E100000430050064AD2F8C4301B06FBD4054AD2
:102E2000D36923F0310343F02003D361704700BF1F
:102E30000040005000430050024B986900F0010030
:102E4000704700BF0043005070B50D4D0D4E6B68CC
:102E500023F480336B60746800F082FC0A4BA3FBA0
:102E6000003024F47022030D22F03002013B42EACC
:102E7000034373606B6823F400336B6070BD00BF65
:102E800010470050004700506BCA5F6B044B186836
:102E900000F46070A0F56070B0FA80F040097047EF
:102EA00010470050024A536843F0300353607047A4
:102EB00000470050024A536843F0010353607047D3
:102EC00000470050024A536823F0010353607047E3
:102ED00000470050024B186800F00100704700BF27
:102EE00000470050034A536823F4803323F0020361
:102EF0005360704710470050034A536843F48033CF
:102F000043F002035360704710470050024A536871
:102F100043F4803353607047104700500D4A08B5A2
:102F20009368013823F4FE0343EA0043936000F002
:102F30001BFC094A094B1268A3FB0232930C322294
:102F400002FB03F222B1002300BF01339A42FBD1FE
:102F500008BD00BF10470050C0FF002083DE1B43A8
:102F60002DE9F843089D424C91469846B8B9E0686F
:102F700020F4807020F001000129E06066D03C4A16
:102F80009368013D23F07F031D439560536843F030
:102F9000010353601368DB07FCD5BDE8F883E068E4
:102FA00040F4807040F001000129E060E7D14FF06B
:102FB000C0642F492F484F682F4E47F001074F60DC
:102FC0004F6847F010074F608F6804FB08F43840E3
:102FD000B4FBF9F409F1FF37A6FB043240EA0760BD
:102FE00008F1FF33920E40EA0323013A43EA024319
:102FF0008B604B6843F040034B604B6823F0100339
:103000004B604B6843F480234B600B685807FCD53A
:103010004B68174A23F001034B601368D907FCD4AF
:10302000164BA3FB0423B5EBD36F4FEAD3601CD33D
:10303000134B6408A3FB0434B5EBD46F4FEAD460A0
:103040000CD32846BDE8F843FFF768BF00F088FBC3
:103050000C4CA4FB0034A40CA405AAE7FFF75EFF08
:103060002846BDE8F843FFF759BFFFF757FFDFE7F2
:1030700010470050FF8080F0ABAAAAAA89888888F0
:10308000B7600BB683DE1B4310B53A4AD3680446DB
:1030900023F48033D36082B0FFF75CFDE379002B2B
:1030A00061D1607A344AD2F8C4301B07FBD433496B
:1030B000314ACB6823F080030343CB60D2F8C4309D
:1030C000002BFBD1207AFFF7F1FC2A4B227CD86839
:1030D000A17920F0FF00013A0243DA601869627CAE
:1030E00020F00100013A02431A61186AA27C20F024
:1030F0000100013A02431A625869E27C20F00100A3
:10310000013A02435A6121BBE1781D4A99B95368DB
:1031100043F4803343F002035360E368B3F5803F28
:1031200004D1144AD36843F48033D36002B0BDE8BD
:10313000104000F019BB5368A08823F4803323F0BB
:1031400002035360A378009323786278FFF708FFA7
:10315000E3E7FFF779FE0A4A136803F46073B3F5F7
:10316000607FF9D1D0E7FFF70FFE044A1368190713
:10317000FCD496E700460050004000500043005049
:1031800010470050024B1868C0F38000704700BF22
:103190001047005010F0010302D00FE0202B0BD09D
:1031A000013320FA03F2D207F8D5202B04D0044AC9
:1031B000002042F823107047012070470023F6E7F3
:1031C000BC0A00200B4B10B55A68002402E0013401
:1031D000202C0DD022FA04F3DB07F8D5064B53F868
:1031E000243003B19847034A012303FA04F4D4605E
:1031F00010BD00BF74400050BC0A00202DE9F84FFC
:10320000DFF8ACB007469BF83CA10D469046002A7B
:1032100044D016888D1BADB22C2404FB0AB44FF0A9
:103220000009F5B1A368DB06FBD4FFF729F8B9194B
:1032300018B3D4E90832E069A2EB0009A94528BF18
:10324000A9464A46184400F0CFF91FFA89F3E2690B
:103250001E44EB1A4A44A9469DB2B6B2E261002D63
:10326000E0D12C2303FB0ABABAF80830C3F3861363
:103270004B450DD02846BDE8F88FFEF7B3FFB8F1F7
:10328000000F0DD1FEF734FF0028CAD0BDE8F88F3B
:10329000064B01221A702846BDE8F88F1646BBE798
:1032A000A8F800600520BDE8F88F00BF9804002052
:1032B000640700207AB110B4013810440A4401397F
:1032C000531E0A18501A11F8014F04709942F9D18F
:1032D0005DF8044B704770472DE9F84F284B824644
:1032E00093F83CB10F469146002A41D0B2F80080D5
:1032F000A1EB0807BFB22C2202FB0B3BAFB3DBF8FC
:103300000830DB06FAD4FEF7BBFF50B9FEF76AFFC0
:10331000B9F1000F2ED1FEF7EBFE0028EED0BDE88C
:10332000F88FDBE90862DBF81C30D21ABA4228BFFA
:103330003A4691B25C1E0AEB080062B1264416447C
:103340000346064410441D78F41A01339842257050
:10335000F9D1DBF81C307F1A1A448844BFB2CBF88D
:103360001C201FFA88F8002FC9D13846BDE8F88F15
:103370009046C0E7A9F800800520BDE8F88F00BF9F
:10338000640700202DE9F845214B804693F83C4125
:103390000D461746002A35D016888D1BADB22C225B
:1033A00002FB043415B3A3681B07FBD4FEF768FFC8
:1033B000034608EB0600E3B1D4E90331AB4228BF72
:1033C0002B469A461A466369194400F00DF9D4E970
:1033D00003231FFA8AF16D1A0E44A2EB0A0253442A
:1033E000ADB2C4E90323B6B2002DDCD12846BDE856
:1033F000F885FEF7CDFE3FB9FEF77AFE0028D1D062
:10340000BDE8F8851646CAE73E800520BDE8F88588
:10341000640700202DE9F84F2B4B824693F83CB10E
:103420000F469146002A47D0B2F80080A1EB08076A
:10343000BFB22C2202FB0B3B002F3AD0DBF8083046
:10344000DB06F9D4FEF71CFF50B9FEF7A1FEB9F177
:10345000000F33D1FEF74CFE0028EDD0BDE8F88F09
:10346000DBF80C40DBE90403A7423A4628BF2246BA
:1034700091B218440AEB080662B1164406440346AA
:10348000013E10441D78F41A013398422570F9D199
:10349000DBF80C40DBF810307F1AA41A88441A4479
:1034A000BFB2CBF80C401FFA88F8CBF81020002FE1
:1034B000C4D13846BDE8F88F9046BAE7A9F8008035
:1034C0000520BDE8F88F00BF640700202DE9F0411A
:1034D000104D80460C46D4B1AB68C3F30016DB0632
:1034E000F9D46B6A286AA342274698BF1F46A4EB0B
:1034F00003043A46414694BFA4B2344600F074F83F
:10350000EB691F44EF61FEF76DFE002CE4D120460D
:10351000BDE8F08164070020FFF7D8BFF8B50D4D76
:1035200007460C46A4B1AB689B06FBD5EE686969FB
:10353000A64228BF26463246384600F055F8EB68CA
:10354000A41BA4B29E1BEE60FEF722FE002CEAD163
:103550002046F8BD64070020FFF7E0BF2DE9F041E9
:10356000204B054693F83C418846002932D00F880D
:10357000C51BADB22C2202FB0434EDB1A368C3F32A
:103580000016DB06F9D4FEF77BFE3146B8B104F134
:103590001C0049C8361AAE4228BF2E46324618448F
:1035A00000F008FBE269B0B22D1A07443244ADB214
:1035B000BFB2E261002DE1D12846BDE8F081FEF7FF
:1035C00011FEB8F1000F07D1FEF792FD0028D4D00C
:1035D000BDE8F0810F46CDE7A8F800700520BDE8F2
:1035E000F08100BF64070020130911D051F804CB0B
:1035F00040F804CB51F804CB40F804CB51F804CB8D
:1036000040F804CB51F804CB40F804CB013BEDD19A
:1036100012F00F0305D011F801CB00F801CB013BEC
:10362000F9D1704701F0FC03184401F0030110B414
:103630000369C900F8248C4023EA04030361036989
:103640005DF8044B8A401A4302617047436F10B41F
:10365000490003248C4023EA04034367436F5DF869
:10366000044B8A401A434267704700BF01F0FC03D5
:103670000344F0B401F003041D691C4FE400F82674
:10368000A64025EA06051D61456F4FEA410C032659
:1036900006FA0CF625EA0605B842456718D0144D1F
:1036A000A84215D05668CD0800EB85058E404660CF
:1036B00001F00701286C890007268E4020EA0600E9
:1036C0002864107A2E6C00FA01F13143296406E077
:1036D000056E012606FA01F125EA0101016612785C
:1036E0001969A2400A43F0BC1A617047008E024873
:1036F000008F0248CB0800EB830001F0070110B4F3
:10370000036C890007248C4023EA04030364036CE0
:103710005DF8044B8A401A430264704772B60D4B41
:103720000D4A9A60BFF34F8F62B6D3F888200B48DA
:1037300042F47002C3F888205A6941F2140122F061
:1037400008025A61435823F00F0343F00303435028
:10375000704700BF00ED00E00000000800100058B6
:1037600000487047001BB7001C4BDB68D90310B53D
:1037700019D51B4BDB68DA072CD51A4818490B689A
:103780005B0720D58C688B688A68C2F30642C3F356
:103790000621C4F30364013204FB0223B0FBF3F3FC
:1037A00001FB033300E00F4B0C4A0F49D06812694C
:1037B000C0B202F0010201300132B3FBF0F3B3FBFF
:1037C000F2F30B6010BD8B6803F07F030133B0FB95
:1037D000F3F3E9E7FFF7C4FFD0E700BF004600506E
:1037E0001047005000366E01C0FF002030B56C4A13
:1037F0001368D90787B006D4536843F001035360B8
:103800001368DB07FCD5674B1A68950511D59A68D4
:10381000002142F400729A600191019B41F64B52E3
:10382000934206D800BF019B01330193019B934251
:10383000F8D95D4A5368002143F400235360029194
:10384000029B40F6C312934206D800BF029B01338D
:103850000293029B9342F8D9534C544D636823F46E
:10386000803323F0020363606B6813F0300F77D16D
:103870004D4B4F495A6842F001025A605A6842F073
:1038800010025A6099605A6842F040025A605A68C1
:1038900022F010025A605A6842F480225A601A6874
:1038A0005407FCD55968404A21F00101596013685A
:1038B00013F00103FBD13F493F4CC868032540F496
:1038C0008030C8604B610B610B624B62CB618D61D4
:1038D000516821F04001516094600393039B40F6CE
:1038E000B732934206D800BF039B01330393039B77
:1038F0009342F8D92C4A13685807FCD52F4B936094
:1039000000230493049B41F29312934206D800BF14
:10391000049B01330493049B9342F8D9224A136811
:103920005907FCD5264B936000230593059B41F274
:103930006F72934206D800BF059B01330593059B28
:103940009342F8D9184A13685B07FCD51D49194BF7
:1039500005200022C8605A60FFF706FF07B030BD9F
:103960006B6823F4702323F030036B60FFF7F8FEDD
:10397000154B6A68A3FB00131B0D013B42EA03438E
:103980006B60E36823F00103E360636823F40033B2
:103990006360236803F46073B3F5607FF9D167E770
:1039A00000420050004400501047005000470050B3
:1039B000004F130100460050004F0701004F040163
:1039C000004F0301604100506BCA5F6B10B54FF0B0
:1039D00000530FCB034C84E80F00FFF79FFEFCF76A
:1039E00069FC10BDC4FF00200C490A6808B58AB103
:1039F000033020F003030A481344834202D20B60D1
:103A0000104608BD00F012F80C234FF0FF3203609F
:103A1000104608BD034A0A60EAE700BF9C04002084
:103A2000C0FF0020400B0020704700BF014B18680A
:103A3000704700BF3000002070B50D4E0D4D761B55
:103A4000B61006D00024013455F8043B9847A6422E
:103A5000F9D1094E094D761BFFF7E6FFB61006D0E7
:103A60000024013455F8043B9847A642F9D170BDB3
:103A70006004002060040020600400206004002036
:103A8000844641EA000313F003036DD1403A41D369
:103A900051F8043B40F8043B51F8043B40F8043B28
:103AA00051F8043B40F8043B51F8043B40F8043B18
:103AB00051F8043B40F8043B51F8043B40F8043B08
:103AC00051F8043B40F8043B51F8043B40F8043BF8
:103AD00051F8043B40F8043B51F8043B40F8043BE8
:103AE00051F8043B40F8043B51F8043B40F8043BD8
:103AF00051F8043B40F8043B51F8043B40F8043BC8
:103B000051F8043B40F8043B51F8043B40F8043BB7
:103B1000403ABDD2303211D351F8043B40F8043B57
:103B200051F8043B40F8043B51F8043B40F8043B97
:103B300051F8043B40F8043B103AEDD20C3205D367
:103B400051F8043B40F8043B043AF9D2043208D05F
:103B5000D2071CBF11F8013B00F8013B01D30B88D1
:103B600003806046704700BF082A13D38B078DD0AF
:103B700010F003038AD0C3F10403D21ADB071CBF81
:103B800011F8013B00F8013B80D331F8023B20F8EB
:103B9000023B7BE7043AD9D3013A11F8013B00F824
:103BA000013BF9D20B7803704B7843708B788370AC
:103BB00060467047F0B4860746D0541E002A3CD0B9
:103BC000CAB2034602E014F1FF3436D303F8012BE6
:103BD0009D07F8D1032C29D9CDB245EA05250F2C34
:103BE00045EA054533D9A4F11006360903F120074B
:103BF00007EB061703F1100242E9045542E90255AA
:103C00001032BA42F8D1721C14F00C0F03EB0212FE
:103C100004F00F0613D0331F23F0030304331344BF
:103C200042F8045B9342FBD106F003042CB1C9B205
:103C30001C4403F8011B9C42FBD1F0BC7047344686
:103C40001346002CF3D1F8E714460346C2E71A46A0
:103C50002646E0E700000000000000000000000031
:103C60000000000000000000000000000000000054
:103C70000000000000000000000000000000000044
:103C800090F800F06DE9024520F007016FF0000C9C
:103C900010F0070491F820F040F049804FF0000444
:103CA0006FF00700D1E9002391F840F000F108001F
:103CB00082FA4CF2A4FA8CF283FA4CF3A2FA8CF357
:103CC0004BBBD1E9022382FA4CF200F10800A4FABE
:103CD0008CF283FA4CF3A2FA8CF3E3B9D1E9042312
:103CE00082FA4CF200F10800A4FA8CF283FA4CF349
:103CF000A2FA8CF37BB9D1E9062301F1200182FA03
:103D00004CF200F10800A4FA8CF283FA4CF3A2FA08
:103D10008CF3002BC6D0002A04BF04301A4612BA16
:103D2000B2FA82F2FDE8024500EBD2007047D1E919
:103D3000002304F00305C4F100004FEAC50514F0A8
:103D4000040F91F840F00CFA05F562EA05021CBF79
:103D500063EA050362464FF00004A9E7500204013C
:103D6000000001000000000000000100010101014D
:103D700080000000000001000000000000000000C2
:103D8000000001000000000009023E000201008066
:103D900032090400000102020100052400100104A0
:103DA0002402060524060001070581030800FF0917
:103DB000040100020A000000070503024000050795
:103DC00005820240000500001201100102000040BF
:103DD0008B0558001000010200010000703E000831
:103DE000143E0008F03D00080400580020000000C8
:103DF0002003490000004600000058000000200099
:103E000000004300000044000000430000000000E8
:103E1000000000005803490000006E00000066002A
:103E20000000690000006E000000650000006F00E7
:103E300000006E000000200000005400000065003B
:103E4000000063000000680000006E0000006F00CA
:103E500000006C0000006F000000670000006900B7
:103E6000000065000000730000000000000000007A
:103E70000403090400000000F10C0008AD12000862
:103E8000F50F0008F90C0008110D0008290D0008B5
:103E9000E90D000819100008D50E0008010E0008F1
:103EA000990D00080D1400084D140008910E00082B
:103EB000C50F0008D90F0008A12000000000020073
:043EC00038000020A6
:103EC4000000045099080008F109000806000000E9
:103ED4000000820040000001030040000001810056
:103EE40008000001000000000000000000000000C5
:103EF400380000200000000000000000240300201F
:103F04008C030020F40300200000000000000000E7
:103F1400000000000000000000000000000000009D
:103F2400000000000000000000000000000000008D
:103F3400000000000000000000000000000000007D
:103F4400000000000000000000000000000000006D
:103F5400000000000000000000000000000000005D
:103F6400000000000000000000000000000000004D
:103F7400000000000000000000000000000000003D
:103F8400000000000000000000000000000000002D
:103F9400000000000000000000000000000000001D
:103FA40001000000000000000E33CDAB34126DE6BA
:103FB400ECDE05000B000000000000000000000023
:103FC40000000000000000000000000000000000ED
:103FD40000000000000000000000000000000000DD
:103FE40000000000000000000000000000000000CD
:103FF40000000000000000000000000000000000BD
:0400000508000201EC
:00000001FF
